:020000040000FA
:060000000A128A110C280F
:10000800FE00030EF1000A08F2000A128A15692F91
:100018000A128A110F28F701F801F9018312031354
:10002800E701E801E901EA01EB01EC01ED01EE016C
:1000380083010A128A15342F831203132D0880397D
:10004800B2003208B7002D08B2003207B3003308F7
:10005800BD00AC1F3028312832283D143D08031953
:100068003628372846283D0A031D3B283C284428C3
:100078000030AD000030AC000030AB000030AA000A
:10008800AC174E280030AD000030AC000030AB009B
:100098000030AA0031088039B2003208B7063108AA
:1000A800B2003207B3003308BC00B01F5C285D28DB
:1000B8005E283C143C0803196228632872283C0A0D
:1000C800031D6728682870280030B1000030B00090
:1000D8000030AF000030AE00B0177A280030B10011
:1000E8000030B0000030AF000030AE003C0803190B
:1000F8007E287F2884283D08031D832884288D288E
:100108000030AD000030AC000030AB000030AA0079
:10011800802B2A08B2003208F30030080A128A1528
:100128008E270A128A11740883120313C3007308F6
:10013800C2004208B200B301B401B5013508BB00E2
:100148003408BA003308B9003208B8004308B200CE
:10015800B301B401B5013508C1003408C000330843
:10016800BF003208BE002B08B2003208F3002F0887
:100178000A128A158E270A128A1174088312031329
:10018800C3007308C2004208B200B301B401B5014C
:100198003208B807330803110318013E0319D5289C
:1001A800B907340803110318013E0319DC28BA07FC
:1001B800350803110318013E0319E328BB07430858
:1001C800B200B301B401B5013208BE073308031108
:1001D8000318013E0319F128BF0734080311031857
:1001E800013E0319F828C007350803110318013E1A
:1001F8000319FF28C1072C08B2003208F3002E08A3
:100208000A128A158E270A128A1174088312031398
:10021800C3007308C2004208B200B301B401B501BB
:100228003208B807330803110318013E03191D29C2
:10023800B907340803110318013E03192429BA0722
:10024800350803110318013E03192B29BB0743087E
:10025800B200B301B401B5013208BE073308031177
:100268000318013E03193929BF073408031103187D
:10027800013E03194029C007350803110318013E40
:1002880003194729C1070830B2000310B80DB90D8A
:10029800BA0DBB0DB20B49292B08B2003208F30086
:1002A8002E080A128A158E270A128A1174088312D8
:1002B8000313C3007308C2004208B2004308B30026
:1002C800B401B5013208B807330803110318013E19
:1002D80003196F29B907340803110318013E0319DC
:1002E8007629BA07350803110318013E03197D2939
:1002F800BB072A08B2003208F3002F080A128A1531
:100308008E270A128A11740883120313C300730814
:10031800C2004208B2004308B300B401B501320874
:10032800B807330803110318013E03199C29B907BC
:10033800340803110318013E0319A329BA07350825
:1003480003110318013E0319AA29BB070830B2009C
:100358000310B80DB90DBA0DBB0DB20BAC292A08A4
:10036800B2003208F3002E080A128A158E270A12E4
:100378008A11740883120313C3007308C200420869
:10038800B2004308B300B401B5013208B807330816
:1003980003110318013E0319D229B90734080311C0
:1003A8000318013E0319D929BA07350803110318A0
:1003B800013E0319E029BB072B08B2003208F300FD
:1003C80030080A128A158E270A128A1174088312B5
:1003D8000313C3007308C2004208B2004308B30005
:1003E800B401B5013208BE07330803110318013EF2
:1003F8000319FF29BF07340803110318013E031925
:10040800062AC007350803110318013E03190D2AEF
:10041800C1072C08B2003208F3002F080A128A1507
:100428008E270A128A11740883120313C3007308F3
:10043800C2004208B2004308B300B401B501320853
:10044800BE07330803110318013E03192C2ABF07FE
:10045800340803110318013E0319332AC00735086D
:1004680003110318013E03193A2AC1072C08B200E8
:100478003208F30030080A128A158E270A128A11E8
:10048800740883120313C3007308C2004208B20041
:100498004308B300B401B50108300310B20DB30D21
:1004A800B40DB50DFF3E031D512A3208BE073308AF
:1004B80003110318013E0319622ABF073408031108
:1004C8000318013E0319692AC007350803110318E8
:1004D800013E0319702AC1073808B2003908B30071
:1004E8003A08B4003B08B50018300310B50CB40C3A
:1004F800B30CB20CFF3E031D792A3208BE0733083D
:1005080003110318013E03198A2ABF07340803118F
:100518000318013E0319912AC0073508031103186F
:10052800013E0319982AC1070830B2000310B80D1C
:10053800B90DBA0DBB0DB20B9A2A3D083C07B200A3
:10054800B301B30D3208823EC20033080318013EDE
:10055800FF3EC300CC2A0130B2000310BE0DBF0D10
:10056800C00DC10DB20BB12ABB1FBB2ABC2ABD2AC4
:100578003E140130B2000310B80DB90DBA0DBB0D11
:10058800B20BBF2AFF30C2070318C30AFF30C307E4
:10059800C01FCF2AD02AAF2ABC01BB1FD42AD52A14
:1005A800F12AFF303805B200FF303905B300FF30BB
:1005B8003A05B4007F303B05B500350834043304F0
:1005C80032040319E82AE92AEC2ABC01BC0AF12AF8
:1005D8003E1CEF2AF02AF12AE92A3C080319F52AD9
:1005E800F62A272B0130BE07003003180130BF0759
:1005F800003003180130C007003003180130C1076C
:10060800411C072B082B272B3E08B2003F08B300DC
:100618004008B4004108B5000130B600350DB50CEE
:10062800B40CB30CB20CB60B122B3508C10034084D
:10063800C0003308BF003208BE000130C2070318EB
:10064800C30A0030C3074308803AFF0080307F02A6
:10065800031D302BFF304202031C332B342B3F2B5E
:100668007F3083120313C1008030C0000030BF0008
:100678000030BE00742B831203134308803AFF0036
:1006880080307F02031D4A2B0130420203184D2B94
:100698004E2B5A2B003083120313C1000030C000C8
:1006A8000030BF000030BE00B701742B8312031363
:1006B8004208B2003208BD00FF30BE05FF30BF055A
:1006C8007F30C0050030C1053D1C6B2B6C2B6D2B9A
:1006D800C0173D08B2000310320CB3003308C10044
:1006E8003708B2003208C1044108AD004008AC0028
:1006F8003F08AB003E08AA0008008312031347080E
:100708008039CC004C08D4004708CC004C07CD00F9
:100718004D08D600C61F912B922B932B56145608C2
:100728000319972B982BA82B560A031D9C2B9D2B3E
:10073800A52B0030C7000030C6000030C5000030CF
:10074800C400C617C701B02B0030C7000030C60070
:100758000030C5000030C4004B088039CC004C087C
:10076800D500550854060319BA2BBB2BBC2B5417BC
:100778004B08CC004C07CD004D08D500CA1FC52B2F
:10078800C62BC72B551455080319CB2BCC2BDC2BA8
:10079800550A031DD02BD12BD92B0030CB000030AC
:1007A800CA000030C9000030C800CA17CB01E42BCA
:1007B8000030CB000030CA000030C9000030C8004B
:1007C800560855020318E92BEA2B2E2C541FED2B43
:1007D800EE2BF22B8030CC004C08D4065608CC0007
:1007E8004C08D7005508CC004C08D6005708CC0058
:1007F8004C08D5004408CC004C08D7004808CC0069
:100808004C08C4005708CC004C08C8004508CC0068
:100818004C08D7004908CC004C08C5005708CC0044
:100828004C08C9004608CC004C08D7004A08CC0040
:100838004C08C6005708CC004C08CA004708CC0032
:100848004C08D7004B08CC004C08C7005708CC0010
:100858004C08CB00D7015508CC00CD014D08CF007E
:1008680056084C02CE00031CCF034F08803AFF0005
:1008780080307F02031D422C1A304E02031C452C87
:10088800462C832C8312031347084604450444046A
:10089800031D4F2C512C0130522C0030CC004C0839
:1008A800D7000030C7000030C6000030C500003057
:1008B800C4005508CC004C08D6008B2C571C652C5E
:1008C800662C6F2C5708CC0003104C0C0138CD0057
:1008D8004D08D700712C0310D70C441C742C752CB0
:1008E800762CD7170130CC00470DC70CC60CC50CA9
:1008F800C40CCC0B782C0130CC004C08D6078312E2
:10090800031355085602031C8A2C8B2C622C541B8B
:100918008E2C8F2CDA2C5608031D932C942C9D2C8E
:100928000030C7000030C6000030C5000030C400E9
:10093800082E4808C407490803110318013E031983
:10094800A62CC5074A0803110318013E0319AD2C4C
:10095800C6074B0803110318013E0319B42CC70737
:10096800471CB72CB82C8E2D571CBB2CBC2CC52C67
:100978005708CC0003104C0C0138CD004D08D700A7
:10098800C72C0310D70C441CCA2CCB2CCC2CD71743
:100998000130CC00470DC70CC60CC50CC40CCC0BE1
:1009A800CE2C0130CC004C08D6078E2D4708803A53
:1009B800FF004B08803A7F02031DEC2C4A084602D0
:1009C800031DEC2C49084502031DEC2C4808440281
:1009D8000318EF2CF02C482DFF30CC00FF30CD0051
:1009E800FF30CE00FF30CF004808D0004908D100C2
:1009F8004A08D2004B08D3004408D0024508031C1B
:100A0800450F072D082DD1024608031C460F0D2D52
:100A18000E2DD2024708031C470F132D142DD302A5
:100A28005008CC0751080318510F1B2D1C2DCD075A
:100A380052080318520F212D222DCE0753080318F0
:100A4800530ACF074F08C7004E08C6004D08C50017
:100A58004C08C4008030CC004C08D406D709D70A0B
:100A68005708031D382D392D562D0130C407003085
:100A780003180130C507003003180130C6070030DD
:100A880003180130C707562D4808C4024908031C3B
:100A9800490FC5024A08031C4A0FC6024B08031C2B
:100AA8004B0FC7024708460445044404031D5D2D47
:100AB8005E2D8A2D5708031D622D632D8A2D003067
:100AC800C7000030C6000030C5000030C400082E42
:100AD8000130CC000310C40DC50DC60DC70DCC0BDD
:100AE8006E2DD71F782D792D7A2D4414571C7D2D06
:100AF8007E2D812D0314D70D832D0310D70D560895
:100B08000319872D882D8A2D0130D602C61F8D2DF9
:100B18008E2D6C2DD501D71F922D932DA12D570801
:100B28007F390319982D992D9C2DD501D50AA12D12
:100B3800441C9F2DA02DA12D992D55080319A52DD5
:100B4800A62DDA2D0130C407003003180130C5077F
:100B5800003003180130C607003003180130C707FA
:100B6800471CB72DB82DDA2D4408CC004508CD0018
:100B78004608CE004708CF000130D0004F0DCF0CFB
:100B8800CE0CCD0CCC0CD00BC22D4F08C7004E0894
:100B9800C6004D08C5004C08C400560A0319D52DD7
:100BA800D62DDA2D0130CC004C08D607560A031989
:100BB800DE2DDF2DE42D5608031DE32DE42DF22D47
:100BC8000030C7000030C6000030C5000030C40047
:100BD8005608031DF02DF12DF22DD401561CF52DCC
:100BE800F62DF82DC617FC2D7F30CC004C08C60515
:100BF8005608CC0003104C0CCD004D08C700D41F7C
:100C0800062E072E082EC717080083120313A40008
:100C180024080319102E112E252EF61F142E152E1A
:100C2800252E7309A6007409A7007509A80076097E
:100C3800A900A60A0319A70A0319A80A0319A90AE9
:100C48002D2E7608A9007508A8007408A700730857
:100C5800A6007608750474047304031D342E352E1B
:100C68003E2E0030F6000030F5000030F400003071
:100C7800F300C42E9630A0002008A500502E0130A5
:100C8800A0002008A50701300310A90CA80CA70C88
:100C9800A60CFF3E031D482EFE302905031D552EC8
:100CA800562E432E722E0130A0002008A5070130D1
:100CB800A607003003180130A707003003180130D9
:100CC800A807003003180130A90701300310A90C48
:100CD800A80CA70CA60CFF3E031D6A2EFF302905A1
:100CE800031D772E782E572E842E0130A502013051
:100CF800A0000310A60DA70DA80DA90DA00B7D2E11
:100D0800A81B872E882E8E2E0230250203188D2EC2
:100D18008E2E792E2518912E922E9A2EFF30A6050A
:100D2800FF30A7057F30A805FF30A9050310A50CE3
:100D38002508A000A101A201A30118300310A00DED
:100D4800A10DA20DA30DFF3E031DA22E2008A6048F
:100D58002108A7042208A8042308A90424080319C1
:100D6800B62EB72EBC2EF61FBA2EBB2EBC2EA91738
:100D78002908F6002808F5002708F4002608F300DB
:100D88000800790883120313E300E401E501E60192
:100D98006608F6006508F5006408F4006308F300C7
:100DA80001300A128A1109260A128A11760883125A
:100DB8000313B1007508B0007408AF007308AE00E3
:100DC8003E30AD007C30AC00ED30AB009130AA0075
:100DD8000A128A1120200A128A11831203132D087D
:100DE800CB002C08CA002B08C9002A08C8004230CA
:100DF800C7007830C6000030C5000030C4000A12B1
:100E08008A1181230A128A11831203134708DB000F
:100E18004608DA004508D9004408D8000A128A11A1
:100E280070270A128A11831203135808950078084C
:100E3800E300E401E501E6016608F6006508F5004F
:100E48006408F4006308F30001300A128A110926C5
:100E58000A128A11760883120313B1007508B000CC
:100E68007408AF007308AE003E30AD007C30AC00B3
:100E7800ED30AB009130AA000A128A1120200A1224
:100E88008A11831203132D08CB002C08CA002B08E3
:100E9800C9002A08C8004230C7007830C6000030B0
:100EA800C5000030C4000A128A1181230A128A116F
:100EB800831203134708DB004608DA004508D90007
:100EC8004408D8000A128A1170270A128A1183125C
:100ED800031358089B0008000310831203135A0DCC
:100EE8005B0DDC005C08E2006208031D7C2F7D2F8F
:100EF800862F0030DB000030DA000030D9000030E7
:100F0800D800EB2F5808DC005908DD005A08DE002D
:100F18005B08DF001F300310DF0CDE0CDD0CDC0C7F
:100F2800FF3E031D8F2F5C08E0006008E100DA1720
:100F3800FF30D805FF30D905FF30DA050030DB0572
:100F48009630E202E21FA92FAA2FC42F6208803A26
:100F5800973E0318B02FB12FB22F7D2F0130031009
:100F6800DB0CDA0CD90CD80CFF3E031DB32F013073
:100F7800DC005C08E207031DC22FC32FB22FDB2F52
:100F880020306202031CC92FCA2FD62F7D2F0130B3
:100F9800DC000310D80DD90DDA0DDB0DDC0BCD2FDD
:100FA8000130E2026208031DDA2FDB2FCB2F610824
:100FB8000319DF2FE02FEB2FD809D909DA09DB094C
:100FC800D80A0319D90A0319DA0A0319DB0A08002F
:101E68000A128A15B7270A128A15831203139F14B8
:101E78000A128A154A270A128A150A128A11C526D1
:101E88000A128A153C2F0A128A110C28831203138E
:101E98009F184F2F502F682F1F0CF300730C0F390A
:101EA800003A031D582F592F5E2F1F08C3390438D5
:101EB8009F00602FC3309F053130F300F30B622F72
:101EC800652F831203139F140800831203130C1F3A
:101ED8006E2F6F2F822F1F0CF000700C0F39003AF5
:101EE800031D772F782F7D2F1E08F0007008F9004A
:101EF800812F1E08F0007008F8000C138C1C852F29
:101F0800862F872F8C1072088A00710E8300FE0EB0
:101F18007E0E090083120313A400A001A101730817
:101F2800F500F6017508A2007608A300241C9D2F71
:101F38009E2FA42F2208A0070318A10A2308A1078F
:101F480001300310A20DA30DFF3E031DA52F0310A2
:101F5800A40C2408031DB12FB22F9A2F2108F400D6
:101F68002008F3000800033083160317880089014E
:101F78000330831603138500860106308700880125
:101F88008901C43081002630831203139200FA308D
:101F9800831603139200831203131F08C3390438EE
:101FA8009F002130F300F30BD72F831203131F1464
:101FB8001F083F3940389F00831603139F131F12D1
:101FC8009F120F140C308312031397000C309D00DE
:101FD800C8308B004230831603138C008D018312A6
:101FE8000313850186018701880189018C018D0110
:081FF8008316031387010800A2
:04400E00D420FF3F7C
:00000001FF
