:060000000A128A11142906
:100008008B13A100030EA2000B1815200B192D202D
:100018000C181D208C182420220E8300A10E210EFE
:100028000900061C2314861CA314061D23150B1097
:1000380008008220C70B08000A30C700A315080073
:10004800031383128C10C30B08000A30C300A316D5
:10005800080023167C20880120184528A0184D2860
:1000680020195528A0195D28201A6528A01A6D287E
:10007800201B75282014A51908002A0887000814D1
:1000880008002010A014A51908002B088700881460
:1000980008002015A010251A08002C08870008154C
:1000A80008002011A015251A08002D0887008815BA
:1000B80008002016A011A51A08002E0887000816A7
:1000C80008002012A016A51A08002F088700881615
:1000D8000800A0122017251B080030088700081701
:1000E8000800A001251B08003108870088170800B0
:1000F80003138312063081000B11080003138312C7
:0C010800B0308E003C308F000C1008005E
:100200008A010A140F3982073F3406345B344F34B5
:1002100066346D347D3407347F34673477347C340E
:1002200039345E34793471340317831688018901B7
:10023000031383160030850007308600870188018C
:1002400089010F148B170B178B168B150313831251
:10025000850187018801890110161014363092003B
:10026000031383160C148C14DF30920064004330A7
:100270008100073095009600031383123F308800F9
:1002800087008601A601A501C2010A30C700C3008C
:10029000C8000330CA0023185B2164212418E2211E
:1002A000A418D1212419BF21A419AD21241A9C21FD
:1002B000FF22CD224B2923102311A513A70A2708BB
:1002C000053A0319A7010800A4012708003A0319F9
:1002D00024142708013A0319A4142708023A031921
:1002E00024152708033A0319A4152708043A03190B
:1002F000241608003F08BC004008BD004108BE00AD
:10030000A6152616A616A31A0512A31A8512A31A55
:1003100005137830C2003F308700FF308800051594
:10032000851686150510A319CA0B08000330CA00EC
:10033000A310C201A6010800061686160617A51FFF
:10034000F721A517A3187A2123195B21A61D4B229B
:10035000261E7622A61E9B220800A51FF321A517A4
:10036000A318E7222319F3224808C100A61D4B2237
:10037000261E7622A61E9B22061686120800A51FA0
:10038000F321A517A318E7222319F3224808C00078
:10039000A61D4B22261E7622A61E9B22861606131B
:1003A0000800A51FF321A517A61D4B22261E7622A5
:1003B000A61E9B224808BF00A318E7222319F32298
:1003C00006170800A51FF721A5170A30BC00BD00BD
:1003D000BE00A61D4B22261E7622A61E9B220612BA
:1003E00086120613080025130A30C80008002517D6
:1003F00087010817881708003C08C400033EC500A1
:100400004507C6000800033008003D08C500033E4C
:10041000C6004607C40008003E08C600033EC400EC
:100420004407C5000800A312421A2A2A42180514DC
:100430004218A511C2188515C218251242190517B0
:100440004219A512C2190617C2198616C219061634
:10045000421608008701421805104218A5154218D7
:10046000081442188814C2188511C2182516C2181B
:100470000815C2188815421905134219A516421904
:10048000081642198816C2190612C2198612C21914
:100490000613421208002616A616851686150511A3
:1004A0008513261C8501261CC201261C0514261C4A
:1004B000FC212614A319C2224508063A0319421446
:1004C000A31A1322251803222518C4002518051085
:1004D000251842102518A511251885142518251052
:1004E000A518A615A5182612A5100800051586152D
:1004F00085128510A61C8515A61C0522A614A31915
:10050000C2224608063A0319C214A31A1322A518D8
:100510000322A518C500A5188511A518C210A51895
:100520002512A5180516A518A51025192616251992
:10053000A612251108000515851686110512261D1F
:100540000517261D0C222615A319C2224408063AB7
:1005500003194215A31A1322251903222519C600CF
:1005600025190513251942112519A51225198517D5
:10057000251925112518A6162518A6112518A60136
:1005800025100800A311C40303192514C50303197A
:10059000A514C603031925150800231233080021EA
:1005A000AA0038080021AB0034080021AC0039084B
:1005B0000021AD0035080021AE003A080021AF004F
:1005C00036080021B0003B080021B1000800A3104C
:1005D000C80A4808153A0319A617A61B0A30A61B15
:1005E000C800A61308002311C8034808093A0319D4
:1005F0002617261B1430261BC800261308004408A3
:1006000020233208B3003708B800B701B20145080B
:1006100020233208B4003708B900B701B2014608F8
:1006200020233208B5003708BA00B701B2014808E4
:1006300020233208B6003708BB00B701B20108001A
:10064000C9000A30C9020318B20A0318222BC907CD
:100650000130C9020318B70A0318292BC90708007B
:04400E00C430FF3F7C
:00000001FF
