:060000000A128A11142906
:100008008B13A100030EA2000B1813200B1922203A
:100018000C181B20220E8300A10E210E0900061CBD
:100028002314861CA314061D23150B100800672033
:10003800BB0B08000A30BB00A3150800231561207C
:10004800880120183828A0183E2820194428A0190B
:100058004A28201A5028A01A5628201B5C2828084D
:100068008700081420140800201029088700881425
:10007800A0140800A0102A088700081520150800F9
:1000880020112B0887008815A0150800A0112C083E
:10009800870008162016080020122D0887008816E9
:1000A800A0160800A0122E088700081720170800BD
:1000B80020132F08870088170800031383120630BF
:1000C80081000B11080003138312B0308E003C30FE
:0600D8008F000C1008006F
:100200008A010A140F3982073F3406345B344F34B5
:1002100066346D347D3407347F34673477347C340E
:1002200039345E34793471340317831688018901B7
:10023000031383160030850007308600870188018C
:1002400089010F148B170B178B168B150313831251
:100250008501870188018901101610140313831684
:100260000C1464004430810007309500960003139D
:1002700083123F30880087000A3023185D21A318BD
:100280005F214C213D290A30B800B900BA000800AE
:10029000B803B903BA030800231130080021A600EF
:1002A00034080021A70031080021A80035080021EA
:1002B000A90032080021AA000800BC0A0800BC03FB
:1002C00008000A30B8020318B00A031CA507031C73
:1002D000A414031C2411031CA50708000130A50267
:0E02E0000318B40A031C2415031CA50708000C
:04400E00C430FF3F7C
:00000001FF
