:060000000A128A11142906
:100008008B13A100030EA2000B1813200B1922203A
:100018000C181B20220E8300A10E210E0900061CBD
:100028002314861CA314061D23150B100800682032
:10003800BD0B08000A30BD00A31508002316622076
:10004800880120183828A0183E2820194428A0190B
:100058004A28201A5028A01A5628201B5C2828084D
:100068008700081420140800201029088700881425
:10007800A0140800A0102A088700081520150800F9
:1000880020112B0887008815A0150800A0112C083E
:10009800870008162016080020122D0887008816E9
:1000A800A0160800A0122E088700081720170800BD
:1000B80020132F0887008817A00108000313831254
:1000C800063081000B11080003138312B0308E0034
:0800D8003C308F000C10080001
:100200008A010A140F3982073F3406345B344F34B5
:1002100066346D347D3407347F34673477347C340E
:1002200039345E34793471340317831688018901B7
:10023000031383160030850007308600870188018C
:1002400089010F148B170B178B168B150313831251
:100250008501870188018901101610140313831684
:100260000C1464004430810007309500960003139D
:1002700083123F30880087000A30BD00A3187F2119
:1002800023198A214621952165213E295221080002
:100290000A30BA00033EBB003B07BC000800033035
:1002A000BA000800251C48212514A3195B21A311BD
:1002B000A5184F210800BA030319A514BB0303199D
:1002C0002515BC030319A5150800231231080021C8
:1002D000A80036080021A90032080021AA0037082A
:1002E0000021AB0033080021AC0038080021AD002C
:1002F00034080021AE0039080021AF000800A31027
:10030000BE0A3E08AE213008B4003508B900B50178
:10031000B00108002311BE033E08AE213008B4002E
:100320003508B900B501B00108003A08AE2130081F
:10033000B1003508B600B501B0013B08AE21300868
:10034000B2003508B700B501B0013C08AE21300855
:10035000B3003508B800B501B0010800BF000A308D
:10036000BF020318B00A0318B029BF070130BF024B
:0C0370000318B50A0318B729BF070800DE
:04400E00C430FF3F7C
:00000001FF
