:060000000A128A11132907
:100200008A010A1482073F3406345B344F34663463
:100210006D347C3407347F34673477347C3439343C
:100220005E3479347134031783168801890103130E
:100230008316FF308500F030860088010313831297
:1002400086018801031383166400C53081000313FF
:1002500083160F168F160F170F1446214021A20187
:100260003F3088000B194921A01B4C21051C52214D
:1002700005185421851C5E21851860216B213229C7
:1002800003138312833081000B1108000030A0009B
:1002900008004021A00A08004021860A4621061ACB
:1002A0008601080021140800211C0800A101A20AEF
:1002B000221AA2012208002188000800A1140800C7
:1002C000A11C0800A101A2030F30A21BA20022085A
:1002D00000218800080022080602031D080086018C
:0402E0008817080073
:04400E00C430FF3F7C
:00000001FF
