:020000040000FA
:060000000A128A110C280F
:10000800FE00030EF6000A08F7000A128A11DD291D
:100018000A128A110F288317F030FD000130FE0004
:100028000530FF00903084000A128A11CE210A128E
:100038008A1183135230FD000130FE009830FF0012
:10004800203084000A128A11CE210A128A11F00186
:10005800F101F201F301F401F50183010A128A1199
:1000680035280A128A1165210A128A11F4017408C6
:10007800031D3F2840286A28613073020318452869
:1000880046284B280130F8007808F30755288312D2
:1000980003138C1E5028512855281A08F800780890
:1000A800F400831203130C1E5A285B286128730876
:1000B800903E84008317000899008230F900DD30F3
:1000C800F800F80B6528F90B65286A2831307406A2
:1000D800031D6F28702893281B3072020318752897
:1000E80076287B280130F8007808F2077E28F4018A
:1000F800F301F201831203130C1E832884288A2833
:100108007208203E84008313000899008230F900A9
:10011800DD30F800F80B8E28F90B8E289328323042
:100128007406031D98289928CA28193071020318E3
:100138009E289F28A4280130F8007808F107B528E0
:10014800831203138C1EA928AA28A4288C1EAD2864
:10015800AE28B0281A088500F401F301F201F10174
:10016800F001831203130C1EBA28BB28C12871089A
:100178003A3E84008313000899008230F900DD308C
:10018800F800F80BC528F90BC528CA2833307406BF
:10019800031DCF28D0283B28193070020318D52812
:1001A800D628DB280130F8007808F007EC288312FD
:1001B80003138C1EE028E128DB288C1EE428E528A0
:1001C800E7281A088600F401F301F201F101F001B1
:1001D800831203130C1EF128F228F82870083A3EFF
:1001E80084008313000899008230F900DD30F8009C
:1001F800F80BFC28F90BFC2801293B280A128A1164
:100208000C28203451347534653420346134633417
:10021800633469346F346E34203464346534733431
:1002280065346134203465346A3465346334753434
:100238007434613472343F340D3428343134293401
:1002480044346534733470346C34653467346134E1
:100258007234203463346134643465346E34613408
:100268002034643465342034633461347234613446
:100278006334743465347234653473340D3428341B
:1002880032342934433461346D346234693461342E
:100298007234203450344F345234543441340D3491
:1002A800283433342934433461346D346234693446
:1002B80061347234203450344F345234543442341C
:1002C80000348316031788018901831603138501F7
:1002D80086018030870088018901C43081000F08B9
:1002E8008F3960388F000F141812181518139816C4
:1002F80083120313981718131816831603178711F8
:10030800193083160313990001309A008B012030AD
:100318008C008D01831203138501860187018801F2
:1003280089018C018D01080020340D344234693470
:1003380065346E34763465346E34693464346F34BD
:100348002C34203463346F346D346F342034653486
:1003580073347434613473343F340D3420340D34C1
:100368005134753465342034633461347234613403
:1003780063347434653472342034643465347334CB
:10038800653461343F340D34003400347E088A000B
:100398007F0882000A128A11CA210A128A11800073
:1003A800840A04087D0603190034FF0A0319FE0AAB
:1003B800CE2977088A00760E8300FE0E7E0E09008D
:04400E00D420FF3F7C
:00000001FF
