:060000000A128A1100291A
:1002000003178316880189011F30031383168500A5
:100210008601870188010313831286018701880103
:10022000051C1B21851C2121051D2821851D2E2132
:10023000051E35211029051C1B29860A061A860170
:100240000800851C212986030F30861B86000800C4
:10025000051D2829870A071A87010800851D2E29F0
:1002600087030F30871B87000800051E3529060805
:080270000707880008000800E0
:04400E00C130FF3F7F
:00000001FF
