:060000000A128A1100291A
:100200000317831688018901FF30031383168500C5
:100210008601870188010313831286018701880103
:10022000051C1921851C2021051D2721851D2E2136
:100230001029051819293B2105181029860A1029AB
:10024000851820293B2185181029860310290519B6
:1002500027293B2105191029870A102985192E29DC
:100260003B218519102987031029C830A1003B21A3
:10027000A10B37290800FA30A000A00B3D29080087
:02028000080074
:04400E00C130FF3F7F
:00000001FF
