:060000000A128A11142906
:100008008B13A600030EA7000B1811200B1917203D
:10001800270E8300A60E260E0900061C2814861C2F
:10002800A8140B10080028153D208801201827283F
:10003800A0182C2820193128A01936282208870052
:10004800081401303B2821088700881402303B2817
:1000580023088700081504303B28240887008815E2
:1000680008303B2823088700081600303B28A000EA
:0E007800080003138312063081000B110800EC
:100200008A010A140F3982073F3406345B344F34B5
:1002100066346D347D3407347F34673477347C340E
:1002200039345E34793471340317831688018901B7
:100230000313831600308500FF3086008701880194
:1002400089018B178B168B15031383128501870188
:100250008801890103138316640044308100033050
:1002600095009600031383160F14031383123F3077
:1002700088008700A10128185621A81859215C215F
:1002800042213B2928112A080021A1002B08002126
:10029000A2002C080021A300AD012D080021A4001C
:1002A000AD012E080021A500AE010800A801850AB5
:1002B0000800A8018503080005080F39AA00050EEB
:1002C0000F39AB0008000508AF006430AF02031C13
:1002D000AC0A031829140800AF070A30AF02031C48
:1002E000AD0A0318A9140800AF070130AF02031CC0
:0802F000AE0A031829150800ED
:04400E00C430FF3F7C
:00000001FF
