:020000040000FA
:060000000A128A110E280D
:10000800FE00030EF2000408F3000A08F4000A12C6
:100018008A1142290A128A111128F601F701F801FA
:1000280083120313AE01AF01B001B101B201B301F4
:10003800B40183010A128A11912983120313A501BD
:10004800A11F272828282F28A009A109A00A0319D9
:10005800A10AA501A50AA31F322833283C28A20912
:10006800A309A20A0319A30A0130F5007508A50619
:10007800A601A701200821040319432844287B2846
:10008800A401A40A522801300310A00DA10DFF3EBF
:10009800031D48280130F5007508A407A11F55283D
:1000A8005628472801300310A60DA70DFF3E031D53
:1000B800572821082302031D632820082202031C55
:1000C800662867286E282008A2022108031CA303BB
:1000D800A302261401300310A10CA00CFF3E031D3F
:1000E8006F280130A402031D7A287B28562825088A
:1000F80003197F2880288528A609A709A60A0319B5
:10010800A70A2708A1002608A000080083120313E5
:10011800A200C0283F30A0002008A300E82806302D
:10012800A0002008A300E8285B30A0002008A30056
:10013800E8284F30A0002008A300E8286630A00077
:100148002008A300E8286D30A0002008A300E828B4
:100158007D30A0002008A300E8280730A000200870
:10016800A300E8287F30A0002008A300E828673013
:10017800A0002008A300E8282208A000A101210867
:10018800003A0319C8288E282008003A03198E2837
:10019800013A03199328033A03199828013A0319D5
:1001A8009D28073A0319A228013A0319A728033AF8
:1001B8000319AC28013A0319B1280F3A0319B628D4
:1001C800013A0319BB288E28230808008312031359
:1001D800AB002B08A8002808F7006430A000003006
:1001E800A1007708A800A9012808A2002908A300EF
:1001F8000A128A1121200A128A1183120313200875
:10020800AA002A08B4009C30A8002808F500340881
:100218000A128A1135220A128A11770783120313E8
:10022800A9002908F7000A30A0000030A1007708CB
:10023800A800A9012808A2002908A3000A128A1107
:1002480021200A128A11831203132008AA002A08FF
:10025800B300F630A8002808F50033080A128A11FE
:1002680035220A128A11770783120313A900290875
:10027800F7007708A8002808B20008000B1D4529D8
:100288004629712964308312031381000B118601FA
:100298005E293108870006160130F0007008F6075D
:1002A800712930088700861650292F0887000617FD
:1002B800F60171297608F000F1017108003A031976
:1002C800662971297008003A03194D29013A031962
:1002D8005529033A031959297129831203130C1F4D
:1002E8007629772988291F0CF000700C0F39003AFD
:1002F800031D7F29802983291E08880087291E0855
:10030800F0007008AE000C1374088A0073088400AB
:10031800720E8300FE0E7E0E09000A128A11D22187
:100328000A128A11831203139F14831203139F184E
:100338009E299F29B8291F0CAC002C0C0F39003AB4
:10034800031DA729A829AD291F08C33904389F0010
:10035800AF29C3309F05313083120313AC00AC0BB7
:10036800B329831203139F142E080A128A11EA2054
:100378000A128A11831203133308AC002C08A40054
:100388003208AD002D08A50034080A128A1110227F
:100398000A128A1199290A128A110E280330831623
:1003A800031788008901033083160313850003307F
:1003B8008600870188018901831203131F08C33946
:1003C80004389F002130F500F50BE8298312031348
:1003D8001F141F083F3940389F00831603139F13CB
:1003E8001F129F12C43081006430831203138100EE
:1003F800831603130F1483120313850186018701E3
:1004080088018901E8308B004030831603138C0083
:10041800831203138C01080083120313A600260815
:100428000A128A118A200A128A11F50075088312A5
:100438000313B10024080A128A118A200A128A11A9
:10044800F500750883120313B00025080A128A11F3
:100458008A200A128A11F500750883120313AF0067
:10046800080083120313A200A101221C3C2A3D2A82
:10047800412A7508A0002008A1070310F50D0310F4
:10048800A20C2208031D492A4A2A392A21080800F1
:04400E00D420FF3F7C
:00000001FF
