:060000000A128A11142906
:100008008B13A600030EA7000B1811200B1917203D
:10001800270E8300A60E260E0900061C2814861C2F
:10002800A8140B10080028153D208801201827283F
:10003800A0182C2820193128A01936282208870052
:10004800081401303B2821088700881402303B2817
:1000580023088700081504303B28240887008815E2
:1000680008303B2825088700081600303B28A000E8
:0E007800080003138312063081000B110800EC
:100200008A010A140F3982073F3406345B344F34B5
:1002100066346D347D3407347F34673477347C340E
:1002200039345E34793471340317831688018901B7
:100230000313831600308500FF3086008701880194
:1002400089018B178B168B15031383128501870188
:100250008801890103138316640044308100033050
:1002600095009600031383160F14031383123F3077
:1002700088008700A101A901AC01AD01AE012818D9
:100280005D21A81864216B21291C7221A91C8321DE
:10029000291D8B214C213F2928112A080021A1006A
:1002A0002B080021A2002C080021A3002D0800210A
:1002B000A4002E080021A5000800A901A801AC0196
:1002C000AD01AE01850A0800A901A801AC01AD018C
:1002D000AE018503080005080F39AA00050E0F3985
:1002E000AB000800A91429150508AF006430AF025F
:1002F0000318AC0A031C2914031CA910031C2911A0
:10030000031CAF07080029150A30AF020318AD0A15
:10031000031CA91408000130AF020318AE0A031C25
:080320002915031CAF070800BA
:04400E00C430FF3F7C
:00000001FF
