:020000040000FA
:060000000A128A110E280D
:10000800FE00030EF3000408F4000A08F5000A12C3
:100018008A15152F0A128A111128F601F701F8011D
:10002800F901FA0183120313EB01EC01ED01EE0172
:10003800EF0183160313A001A10183010A128A1597
:10004800712E8312031331088039B6003608BB00BD
:100058003108B6003607B7003708C100B01F352889
:10006800362837284114410803193B283C284B28D7
:10007800410A031D4028412849280030B1000030BA
:10008800B0000030AF000030AE00B0175328003089
:10009800B1000030B0000030AF000030AE003508CD
:1000A8008039B6003608BB063508B6003607B700F3
:1000B8003708BC00B41F6128622863283C143C0838
:1000C80003196728682877283C0A031D6C286D28BF
:1000D80075280030B5000030B4000030B30000309F
:1000E800B200B4177F280030B5000030B4000030EB
:1000F800B3000030B2003C080319832884288928FB
:100108004108031D8828892892280030B100003052
:10011800B0000030AF000030AE00852B2E08B600CE
:100128003608A00034080A128A11D1270A128A1147
:10013800831203132108C7002008C6004608B6002A
:10014800B701B801B9013908C0003808BF0037083D
:10015800BE003608BD004708B600B701B801B901AE
:100168003908C5003808C4003708C3003608C2007B
:100178002F08B6003608A00033080A128A11D127C2
:100188000A128A11831203132108C7002008C60027
:100198004608B600B701B801B9013608BD073708E7
:1001A80003110318013E0319DA28BE0738080311A2
:1001B8000318013E0319E128BF0739080311031882
:1001C800013E0319E828C0074708B600B701B8017F
:1001D800B9013608C207370803110318013E03198D
:1001E800F628C307380803110318013E0319FD2830
:1001F800C407390803110318013E03190429C50768
:100208003008B6003608A00032080A128A11D12731
:100218000A128A11831203132108C7002008C60096
:100228004608B600B701B801B9013608BD07370856
:1002380003110318013E03192229BE0738080311C8
:100248000318013E03192929BF07390803110318A8
:10025800013E03193029C0074708B600B701B801A5
:10026800B9013608C207370803110318013E0319FC
:100278003E29C307380803110318013E031945290D
:10028800C407390803110318013E03194C29C5078F
:100298000830B6000310BD0DBE0DBF0DC00DB60B66
:1002A8004E292F08B6003608A00032080A128A1113
:1002B800D1270A128A11831203132108C7002008C4
:1002C800C6004608B6004708B700B801B9013608A5
:1002D800BD07370803110318013E03197429BE0727
:1002E800380803110318013E03197B29BF07390891
:1002F80003110318013E03198229C0072E08B6000E
:100308003608A00033080A128A11D1270A128A1166
:10031800831203132108C7002008C6004608B60048
:100328004708B700B801B9013608BD0737080311F7
:100338000318013E0319A129BE0738080311031841
:10034800013E0319A829BF07390803110318013E04
:100358000319AF29C0070830B6000310BD0DBE0D44
:10036800BF0DC00DB60BB1292E08B6003608A00087
:1003780032080A128A11D1270A128A11831203132A
:100388002108C7002008C6004608B6004708B7007D
:10039800B801B9013608BD07370803110318013E33
:1003A8000319D729BE07380803110318013E03199A
:1003B800DE29BF07390803110318013E0319E5298F
:1003C800C0072F08B6003608A00034080A128A11A0
:1003D800D1270A128A11831203132108C7002008A3
:1003E800C6004608B6004708B700B801B901360884
:1003F800C207370803110318013E0319042AC3076B
:10040800380803110318013E03190B2AC4073908D9
:1004180003110318013E0319122AC5073008B60054
:100428003608A00033080A128A11D1270A128A1145
:10043800831203132108C7002008C6004608B60027
:100448004708B700B801B9013608C20737080311D1
:100458000318013E0319312AC3073808031103188A
:10046800013E0319382AC407390803110318013E4D
:1004780003193F2AC5073008B6003608A00034081B
:100488000A128A11D1270A128A118312031321082A
:10049800C7002008C6004608B6004708B700B801DC
:1004A800B90108300310B60DB70DB80DB90DFF3EF0
:1004B800031D562A3608C207370803110318013EE0
:1004C8000319672AC307380803110318013E0319E3
:1004D8006E2AC407390803110318013E0319752A47
:1004E800C5073D08B6003E08B7003F08B8004008F9
:1004F800B90018300310B90CB80CB70CB60CFF3E95
:10050800031D7E2A3608C207370803110318013E67
:1005180003198F2AC307380803110318013E03196A
:10052800962AC407390803110318013E03199D2AA6
:10053800C5070830B6000310BD0DBE0DBF0DC00DB8
:10054800B60B9F2A41083C07B600B701B70D36081D
:10055800823EC60037080318013EFF3EC700D12A75
:100568000130B6000310C20DC30DC40DC50DB60B86
:10057800B62AC01FC02AC12AC22A42140130B600B6
:100588000310BD0DBE0DBF0DC00DB60BC42AFF3044
:10059800C6070318C70AFF30C707C41FD42AD52ABD
:1005A800B42ABC01C01FD92ADA2AF62AFF303D0531
:1005B800B600FF303E05B700FF303F05B8007F307A
:1005C8004005B90039083804370436040319ED2A00
:1005D800EE2AF12ABC01BC0AF62A421CF42AF52AA2
:1005E800F62AEE2A3C080319FA2AFB2A2C2B01309A
:1005F800C207003003180130C30700300318013068
:10060800C407003003180130C507451C0C2B0D2BFF
:100618002C2B4208B6004308B7004408B800450828
:10062800B9000130BA00390DB90CB80CB70CB60CCA
:10063800BA0B172B3908C5003808C4003708C3009F
:100648003608C2000130C6070318C70A0030C707BA
:100658004708803AFF0080307F02031D352BFF30AA
:100668004602031C382B392B442B7F30831203138B
:10067800C5008030C4000030C3000030C200792BB0
:10068800831203134708803AFF0080307F02031D5E
:100698004F2B013046020318522B532B5F2B00308F
:1006A80083120313C5000030C4000030C3000030BB
:1006B800C200BB01792B831203134608B600360823
:1006C800C100FF30C205FF30C3057F30C4050030CC
:1006D800C505411C702B712B722BC4174108B6003D
:1006E8000310360CB7003708C5003B08B6003608BB
:1006F800C5044508B1004408B0004308AF004208EB
:10070800AE000800831203134B088039D00050084C
:10071800D8004B08D0005007D1005108DA00CA1F92
:10072800962B972B982B5A145A0803199C2B9D2B00
:10073800AD2B5A0A031DA12BA22BAA2B0030CB00EC
:100748000030CA000030C9000030C800CA17CB0109
:10075800B52B0030CB000030CA000030C900003093
:10076800C8004F088039D0005008D90059085806E9
:100778000319BF2BC02BC12B58174F08D0005007A7
:10078800D1005108D900CE1FCA2BCB2BCC2B591422
:1007980059080319D02BD12BE12B590A031DD52B4E
:1007A800D62BDE2B0030CF000030CE000030CD003D
:1007B8000030CC00CE17CF01E92B0030CF0000303D
:1007C800CE000030CD000030CC005A085902031882
:1007D800EE2BEF2B332C581FF22BF32BF72B8030FB
:1007E800D0005008D8065A08D0005008DB00590835
:1007F800D0005008DA005B08D0005008D90048083B
:10080800D0005008DB004C08D0005008C8005B0836
:10081800D0005008CC004908D0005008DB004D0833
:10082800D0005008C9005B08D0005008CD004A0825
:10083800D0005008DB004E08D0005008CA005B0802
:10084800D0005008CE004B08D0005008DB004F08FD
:10085800D0005008CB005B08D0005008CF00DB0167
:100868005908D000D1015108D3005A085002D200CB
:10087800031CD3035308803AFF0080307F02031D16
:10088800472C1A305202031C4A2C4B2C882C8312FA
:1008980003134B084A0449044804031D542C562CDE
:1008A8000130572C0030D0005008DB000030CB005E
:1008B8000030CA000030C9000030C8005908D00014
:1008C8005008DA00902C5B1C6A2C6B2C742C5B088B
:1008D800D0000310500C0138D1005108DB00762CF1
:1008E8000310DB0C481C792C7A2C7B2CDB1701308D
:1008F800D0004B0DCB0CCA0CC90CC80CD00B7D2CEE
:100908000130D0005008DA078312031359085A023D
:10091800031C8F2C902C672C581B932C942CDF2CA9
:100928005A08031D982C992CA22C0030CB000030BB
:10093800CA000030C9000030C8000D2E4C08C80796
:100948004D0803110318013E0319AB2CC9074E08C3
:1009580003110318013E0319B22CCA074F080311EB
:100968000318013E0319B92CCB074B1CBC2CBD2C1A
:10097800932D5B1CC02CC12CCA2C5B08D000031023
:10098800500C0138D1005108DB00CC2C0310DB0CD3
:10099800481CCF2CD02CD12CDB170130D0004B0DAC
:1009A800CB0CCA0CC90CC80CD00BD32C0130D0000E
:1009B8005008DA07932D4B08803AFF004F08803A19
:1009C8007F02031DF12C4E084A02031DF12C4D082D
:1009D8004902031DF12C4C0848020318F42CF52C8D
:1009E8004D2DFF30D000FF30D100FF30D200FF3056
:1009F800D3004C08D4004D08D5004E08D6004F0847
:100A0800D7004808D4024908031C490F0C2D0D2DA6
:100A1800D5024A08031C4A0F122D132DD6024B0883
:100A2800031C4B0F182D192DD7025408D007550851
:100A38000318550F202D212DD10756080318560FDE
:100A4800262D272DD20757080318570AD30753080E
:100A5800CB005208CA005108C9005008C8008030AD
:100A6800D0005008D806DB09DB0A5B08031D3D2DC2
:100A78003E2D5B2D0130C807003003180130C9072F
:100A8800003003180130CA07003003180130CB07C3
:100A98005B2D4C08C8024D08031C4D0FC9024E08B7
:100AA800031C4E0FCA024F08031C4F0FCB024B0802
:100AB8004A0449044804031D622D632D8F2D5B08E9
:100AC800031D672D682D8F2D0030CB000030CA0024
:100AD8000030C9000030C8000D2E0130D0000310CE
:100AE800C80DC90DCA0DCB0DD00B732DDB1F7D2D85
:100AF8007E2D7F2D48145B1C822D832D862D03149B
:100B0800DB0D882D0310DB0D5A0803198C2D8D2D54
:100B18008F2D0130DA02CA1F922D932D712DD90124
:100B2800DB1F972D982DA62D5B087F3903199D2D66
:100B38009E2DA12DD901D90AA62D481CA42DA52D7D
:100B4800A62D9E2D59080319AA2DAB2DDF2D013096
:100B5800C807003003180130C907003003180130F6
:100B6800CA07003003180130CB074B1CBC2DBD2D24
:100B7800DF2D4808D0004908D1004A08D2004B08A8
:100B8800D3000130D400530DD30CD20CD10CD00CAF
:100B9800D40BC72D5308CB005208CA005108C9000E
:100BA8005008C8005A0A0319DA2DDB2DDF2D013051
:100BB800D0005008DA075A0A0319E32DE42DE92D6D
:100BC8005A08031DE82DE92DF72D0030CB00003021
:100BD800CA000030C9000030C8005A08031DF52DAE
:100BE800F62DF72DD8015A1CFA2DFB2DFD2DCA170D
:100BF800012E7F30D0005008CA055A08D0000310D3
:100C0800500CD1005108CB00D81F0B2E0C2E0D2EE6
:100C1800CB170800831203136E08E700E801E90107
:100C2800EA016A08A3006908A2006808A100670829
:100C3800A00001300A128A1115270A128A1183129C
:100C480003132308B5002208B4002108B3002008C4
:100C5800B2003E30B1007C30B000ED30AF009130D2
:100C6800AE000A128A1125200A128A118312031370
:100C78003108CF003008CE002F08CD002E08CC0058
:100C88004230CB007830CA000030C9000030C800BC
:100C98000A128A1186230A128A11831203134B0837
:100CA800DF004A08DE004908DD004808DC000A12B7
:100CB8008A1584270A128A11831203135C08950087
:100CC8006F08E700E801E901EA016A08A30069087A
:100CD800A2006808A1006708A00001300A128A1162
:100CE80015270A128A11831203132308B500220854
:100CF800B4002108B3002008B2003E30B1007C30B7
:100D0800B000ED30AF009130AE000A128A112520F4
:100D18000A128A11831203133108CF003008CE005B
:100D28002F08CD002E08CC004230CB007830CA0006
:100D38000030C9000030C8000A128A1186230A123E
:100D48008A11831203134B08DF004A08DE004908A2
:100D5800DD004808DC000A128A1584270A128A1165
:100D6800831203135C089B006D08E700E801E901A2
:100D7800EA016A08A3006908A2006808A1006708D8
:100D8800A00001300A128A1115270A128A1183124B
:100D980003132308B5002208B4002108B300200873
:100DA800B2004030B1007A30B000E130AF004830D6
:100DB800AE000A128A1125200A128A11831203131F
:100DC8003108CF003008CE002F08CD002E08CC0007
:100DD8004730CB007830CA003030C9000030C80036
:100DE8000A128A1186230A128A11831203134B08E6
:100DF800DF004A08DE004908DD004808DC000A1266
:100E08008A1584270A128A11831203135D08831630
:100E18000313A100831203135C0883160313A000B5
:100E2800080083120313A800280803191C2F1D2F7C
:100E3800312FA31F202F212F312F2009AA0021098C
:100E4800AB002209AC002309AD00AA0A0319AB0ABA
:100E58000319AC0A0319AD0A392F2308AD0022087B
:100E6800AC002108AB002008AA00230822042104B2
:100E78002004031D402F412F4A2F0030A3000030CB
:100E8800A2000030A1000030A000D02F9630A400AE
:100E98002408A9005C2F0130A4002408A907013008
:100EA8000310AD0CAC0CAB0CAA0CFF3E031D542F69
:100EB800FE302D05031D612F622F4F2F7E2F01302D
:100EC800A4002408A9070130AA070030031801303C
:100ED800AB07003003180130AC07003003180130AD
:100EE800AD0701300310AD0CAC0CAB0CAA0CFF3EE7
:100EF800031D762FFF302D05031D832F842F632FAD
:100F0800902F0130A9020130A4000310AA0DAB0DE7
:100F1800AC0DAD0DA40B892FAC1B932F942F9A2FDA
:100F2800023029020318992F9A2F852F29189D2FEF
:100F38009E2FA62FFF30AA05FF30AB057F30AC05EA
:100F4800FF30AD050310A90C2908A400A501A601CE
:100F5800A70118300310A40DA50DA60DA70DFF3E7F
:100F6800031DAE2F2408AA042508AB042608AC04E8
:100F78002708AD0428080319C22FC32FC82FA31FA1
:100F8800C62FC72FC82FAD172D08A3002C08A20005
:100F98002B08A1002A08A000080083120313A80048
:100FA800A401A5012008A200A3012208A600230885
:100FB800A700281CE02FE12FE72F2608A407031815
:100FC800A50A2708A50701300310A60DA70DFF3EA7
:100FD800031DE82F0310A80C2808031DF42FF52F74
:0C0FE800DD2F2508A1002408A00008004F
:101CE2000A128A15BB260A128A15831203139F143D
:101CF2000A128A1587260A128A150A128A110E26D4
:101D02000A128A15792E0A128A110E2883120313D7
:101D12009F188C2E8D2EBA2E9B2E1F08C339043885
:101D22009F00B12E1F08C33908389F00B12EC3305F
:101D32009F05B12E1F0CA000200C0F39A100A2019B
:101D42002208003A0319A62EB12E2108003A0319DF
:101D52008E2E013A0319932E033A0319982EB12EAF
:101D6200313083120313A000A00BB52E831203138C
:101D72009F14080007308316031788008901073073
:101D82008316031385008601863087008801890146
:101D920083308100063083120313810001309000EA
:101DA2000C10FC308F0018308E0026309200FA3072
:101DB200831603139200831203131F08C3390438D6
:101DC2009F00203083120313A000A00BE62E000018
:101DD200831203131F141F083F3940389F008316D4
:101DE20003139F131F129F120F088F3960388F0041
:101DF2000F140C308312031397000C309D00E03057
:101E02008B004330831603138C008D01831203135E
:101E1200850186018701880189018C018D0180304D
:101E220083160313870008000B1D182F192F212F6B
:101E32000630831203138100EB01EC010B110C1429
:101E4200831203130C1C262F272F432F0C108316EB
:101E520003132108831203138F0083160313200830
:101E6200831203138E000130EB070318EC0A0030D3
:101E7200EC076B036C04031D3F2F402F422F871585
:101E8200432F87110C1F462F472F6E2F572F1E08E7
:101E9200F0007008EF006D2F1E08F0007008EE00D1
:101EA2006D2F1E08F0007008ED006D2F1F0CF00062
:101EB200700C0F39F100F2017208003A0319622F17
:101EC2006D2F7108003A0319482F013A03194D2F5B
:101ED200033A0319522F6D2F0C138C1C712F722F82
:101EE200732F8C108C1E762F772F7B2F1A08F00001
:101EF2007008F80075088A0074088400730E830065
:101F0200FE0E7E0E09000310831203135E0D5F0D99
:101F1200E0006008E6006608031D902F912F9A2FBB
:101F22000030DF000030DE000030DD000030DC0079
:101F3200FF2F5C08E0005D08E1005E08E2005F0838
:101F4200E3001F300310E30CE20CE10CE00CFF3E57
:101F5200031DA32F6008E4006408E500DE17FF30CC
:101F6200DC05FF30DD05FF30DE050030DF05963091
:101F7200E602E61FBD2FBE2FD82F6608803A973E95
:101F82000318C42FC52FC62F912F01300310DF0C69
:101F9200DE0CDD0CDC0CFF3E031DC72F0130E00020
:101FA2006008E607031DD62FD72FC62FEF2F20304C
:101FB2006602031CDD2FDE2FEA2F912F0130E00095
:101FC2000310DC0DDD0DDE0DDF0DE00BE12F013026
:101FD200E6026608031DEE2FEF2FDF2F65080319B7
:101FE200F32FF42FFF2FDC09DD09DE09DF09DC0AFC
:0E1FF2000319DD0A0319DE0A0319DF0A0800CD
:04400E00D420FF3F7C
:00000001FF
