:020000040000FA
:060000000A128A110E280D
:10000800FE00030EF9000408FA000A08FB000A12B1
:100018008A15E52D0A128A111128831603130A126C
:100028008A11FB270A128A11A600831203130A12E7
:100038008A11FA270A128A11EF0083160313A00106
:10004800A101A201A301A401A50183120313EB01DD
:10005800EC01ED01EE01F001F101F201F301F4010F
:10006800F50183010A128A15162D8312031331082C
:100078008039B6003608BB003108B6003607B7002D
:100088003708C100B01F49284A284B2841144108A5
:1000980003194F2850285F28410A031D5428552862
:1000A8005D280030B1000030B0000030AF000030F3
:1000B800AE00B01767280030B1000030B000003043
:1000C800AF000030AE0035088039B6003608BB06F0
:1000D8003508B6003607B7003708BC00B41F7528C6
:1000E800762877283C143C0803197B287C288B2821
:1000F8003C0A031D8028812889280030B50000307B
:10010800B4000030B3000030B200B41793280030B8
:10011800B5000030B4000030B3000030B2003C0835
:100128000319972898289D284108031D9C289D2875
:10013800A6280030B1000030B0000030AF00003019
:10014800AE00992B2E08B6003608A00034080A1213
:100158008A15ED240A128A11831203132108C70095
:100168002008C6004608B600B701B801B901390829
:10017800C0003808BF003708BE003608BD00470871
:10018800B600B701B801B9013908C5003808C4007C
:100198003708C3003608C2002F08B6003608A0008A
:1001A80033080A128A15ED240A128A1183120313DE
:1001B8002108C7002008C6004608B600B701B801E4
:1001C800B9013608BD07370803110318013E0319A2
:1001D800EE28BE07380803110318013E0319F52855
:1001E800BF07390803110318013E0319FC28C0078B
:1001F8004708B600B701B801B9013608C207370881
:1002080003110318013E03190A29C307380803110B
:100218000318013E03191129C407390803110318EB
:10022800013E03191829C5073008B6003608A00092
:1002380032080A128A15ED240A128A11831203134E
:100248002108C7002008C6004608B600B701B80153
:10025800B9013608BD07370803110318013E031911
:100268003629BE07380803110318013E03193D2932
:10027800BF07390803110318013E03194429C007B1
:100288004708B600B701B801B9013608C2073708F0
:1002980003110318013E03195229C3073808031133
:1002A8000318013E03195929C40739080311031813
:1002B800013E03196029C5070830B6000310BD0DBB
:1002C800BE0DBF0DC00DB60B62292F08B60036084B
:1002D800A00032080A128A15ED240A128A11831224
:1002E80003132108C7002008C6004608B6004708BF
:1002F800B700B801B9013608BD073708031103185C
:10030800013E03198829BE07380803110318013E66
:1003180003198F29BF07390803110318013E031970
:100328009629C0072E08B6003608A00033080A121E
:100338008A15ED240A128A11831203132108C700B3
:100348002008C6004608B6004708B700B801B9013A
:100358003608BD07370803110318013E0319B529EC
:10036800BE07380803110318013E0319BC29BF074B
:10037800390803110318013E0319C329C0070830BF
:10038800B6000310BD0DBE0DBF0DC00DB60BC529BF
:100398002E08B6003608A00032080A128A15ED2485
:1003A8000A128A11831203132108C7002008C60005
:1003B8004608B6004708B700B801B9013608BD07B6
:1003C800370803110318013E0319EB29BE07380843
:1003D80003110318013E0319F229BF073908031155
:1003E8000318013E0319F929C0072F08B60036087B
:1003F800A00034080A128A15ED240A128A11831201
:1004080003132108C7002008C6004608B60047089D
:10041800B700B801B9013608C20737080311031835
:10042800013E0319182AC307380803110318013EAF
:1004380003191F2AC407390803110318013E0319B9
:10044800262AC5073008B6003608A00033080A1265
:100458008A15ED240A128A11831203132108C70092
:100468002008C6004608B6004708B700B801B90119
:100478003608C207370803110318013E0319452A35
:10048800C307380803110318013E03194C2AC4078F
:10049800390803110318013E0319532AC507300808
:1004A800B6003608A00034080A128A15ED240A128C
:1004B8008A11831203132108C7002008C6004608C2
:1004C800B6004708B700B801B90108300310B60DE7
:1004D800B70DB80DB90DFF3E031D6A2A3608C207CD
:1004E800370803110318013E03197B2AC30738088C
:1004F80003110318013E0319822AC407390803119E
:100508000318013E0319892AC5073D08B6003E08AD
:10051800B7003F08B8004008B90018300310B90CFC
:10052800B80CB70CB60CFF3E031D922A3608C2075A
:10053800370803110318013E0319A32AC307380813
:1005480003110318013E0319AA2AC4073908031125
:100558000318013E0319B12AC5070830B600031075
:10056800BD0DBE0DBF0DC00DB60BB32A41083C072B
:10057800B600B701B70D3608823EC6003708031823
:10058800013EFF3EC700E52A0130B6000310C20D48
:10059800C30DC40DC50DB60BCA2AC01FD42AD52A4F
:1005A800D62A42140130B6000310BD0DBE0DBF0D92
:1005B800C00DB60BD82AFF30C6070318C70AFF308C
:1005C800C707C41FE82AE92AC82ABC01C01FED2AA8
:1005D800EE2A0A2BFF303D05B600FF303E05B70076
:1005E800FF303F05B8007F304005B90039083804AE
:1005F800370436040319012B022B052BBC01BC0A56
:100608000A2B421C082B092B0A2B022B3C08031926
:100618000E2B0F2B402B0130C2070030031801307E
:10062800C307003003180130C40700300318013035
:10063800C507451C202B212B402B4208B600430838
:10064800B7004408B8004508B9000130BA00390DB0
:10065800B90CB80CB70CB60CBA0B2B2B3908C50063
:100668003808C4003708C3003608C2000130C6077E
:100678000318C70A0030C7074708803AFF008030D0
:100688007F02031D492BFF304602031C4C2B4D2BC8
:10069800582B7F3083120313C5008030C40000300C
:1006A800C3000030C2008D2B831203134708803A21
:1006B800FF0080307F02031D632B013046020318C0
:1006C800662B672B732B003083120313C500003091
:1006D800C4000030C3000030C200BB018D2B831260
:1006E80003134608B6003608C100FF30C205FF30C4
:1006F800C3057F30C4050030C505411C842B852BFC
:10070800862BC4174108B6000310360CB70037080B
:10071800C5003B08B6003608C5044508B1004408C2
:10072800B0004308AF004208AE000800831203136C
:100738004B088039D0005008D8004B08D00050072B
:10074800D1005108DA00CA1FAA2BAB2BAC2B5A14C4
:100758005A080319B02BB12BC12B5A0A031DB52B0C
:10076800B62BBE2B0030CB000030CA000030C900C9
:100778000030C800CA17CB01C92B0030CB000030AD
:10078800CA000030C9000030C8004F088039D000C6
:100798005008D900590858060319D32BD42BD52B48
:1007A80058174F08D0005007D1005108D900CE1F64
:1007B800DE2BDF2BE02B591459080319E42BE52B0A
:1007C800F52B590A031DE92BEA2BF22B0030CF0039
:1007D8000030CE000030CD000030CC00CE17CF0165
:1007E800FD2B0030CF000030CE000030CD000030AF
:1007F800CC005A0859020318022C032C472C581F06
:10080800062C072C0B2C8030D0005008D8065A082C
:10081800D0005008DB005908D0005008DA005B0807
:10082800D0005008D9004808D0005008DB004C0818
:10083800D0005008C8005B08D0005008CC00490818
:10084800D0005008DB004D08D0005008C9005B08F4
:10085800D0005008CD004A08D0005008DB004E08F0
:10086800D0005008CA005B08D0005008CE004B08E2
:10087800D0005008DB004F08D0005008CB005B08C0
:10088800D0005008CF00DB015908D000D101510831
:10089800D3005A085002D200031CD3035308803AED
:1008A800FF0080307F02031D5B2C1A305202031CAC
:1008B8005E2C5F2C9C2C831203134B084A044904BA
:1008C8004804031D682C6A2C01306B2C0030D000C2
:1008D8005008DB000030CB000030CA000030C900EF
:1008E8000030C8005908D0005008DA00A42C5B1C5E
:1008F8007E2C7F2C882C5B08D0000310500C01380C
:10090800D1005108DB008A2C0310DB0C481C8D2C0D
:100918008E2C8F2CDB170130D0004B0DCB0CCA0C62
:10092800C90CC80CD00B912C0130D0005008DA0744
:100938008312031359085A02031CA32CA42C7B2CE2
:10094800581BA72CA82CF32C5A08031DAC2CAD2C33
:10095800B62C0030CB000030CA000030C90000308F
:10096800C800212E4C08C8074D0803110318013E82
:100978000319BF2CC9074E0803110318013E0319B8
:10098800C62CCA074F0803110318013E0319CD2CC2
:10099800CB074B1CD02CD12CA72D5B1CD42CD52CD1
:1009A800DE2C5B08D0000310500C0138D100510830
:1009B800DB00E02C0310DB0C481CE32CE42CE52CBA
:1009C800DB170130D0004B0DCB0CCA0CC90CC80C7E
:1009D800D00BE72C0130D0005008DA07A72D4B08C0
:1009E800803AFF004F08803A7F02031D052D4E080C
:1009F8004A02031D052D4D084902031D052D4C080B
:100A080048020318082D092D612DFF30D000FF3052
:100A1800D100FF30D200FF30D3004C08D4004D087D
:100A2800D5004E08D6004F08D7004808D402490818
:100A3800031C490F202D212DD5024A08031C4A0FFB
:100A4800262D272DD6024B08031C4B0F2C2D2D2DA0
:100A5800D7025408D00755080318550F342D352DE3
:100A6800D10756080318560F3A2D3B2DD2075708C1
:100A78000318570AD3075308CB005208CA00510875
:100A8800C9005008C8008030D0005008D806DB09DB
:100A9800DB0A5B08031D512D522D6F2D0130C8074D
:100AA800003003180130C907003003180130CA07A5
:100AB800003003180130CB076F2D4C08C8024D08D1
:100AC800031C4D0FC9024E08031C4E0FCA024F08E3
:100AD800031C4F0FCB024B084A0449044804031D6A
:100AE800762D772DA32D5B08031D7B2D7C2DA32D43
:100AF8000030CB000030CA000030C9000030C80008
:100B0800212E0130D0000310C80DC90DCA0DCB0D20
:100B1800D00B872DDB1F912D922D932D48145B1C34
:100B2800962D972D9A2D0314DB0D9C2D0310DB0DAC
:100B38005A080319A02DA12DA32D0130DA02CA1FCE
:100B4800A62DA72D852DD901DB1FAB2DAC2DBA2DD8
:100B58005B087F390319B12DB22DB52DD901D90AFA
:100B6800BA2D481CB82DB92DBA2DB22D5908031924
:100B7800BE2DBF2DF32D0130C807003003180130FA
:100B8800C907003003180130CA07003003180130C4
:100B9800CB074B1CD02DD12DF32D4808D000490888
:100BA800D1004A08D2004B08D3000130D400530DBD
:100BB800D30CD20CD10CD00CD40BDB2D5308CB00AA
:100BC8005208CA005108C9005008C8005A0A031937
:100BD800EE2DEF2DF32D0130D0005008DA075A0A18
:100BE8000319F72DF82DFD2D5A08031DFC2DFD2D99
:100BF8000B2E0030CB000030CA000030C900003096
:100C0800C8005A08031D092E0A2E0B2ED8015A1C9B
:100C18000E2E0F2E112ECA17152E7F30D000500819
:100C2800CA055A08D0000310500CD1005108CB0057
:100C3800D81F1F2E202E212ECB1708008312031336
:100C48006D08E700E801E901EA016A08A3006908FC
:100C5800A2006808A1006708A00001300A128A11E2
:100C680029270A128A11831203132308B5002208C0
:100C7800B4002108B3002008B2003E30B1007C3037
:100C8800B000ED30AF009130AE000A128A11392061
:100C98000A128A11831203133108CF003008CE00DC
:100CA8002F08CD002E08CC004230CB007830CA0087
:100CB8000030C9000030C8000A128A119A230A12AB
:100CC8008A11831203134B08DF004A08DE00490823
:100CD800DD004808DC000A128A155E260A128A110D
:100CE800831203135C0895006E08E700E801E90128
:100CF800EA016A08A3006908A2006808A100670859
:100D0800A00001300A128A1129270A128A118312B7
:100D180003132308B5002208B4002108B3002008F3
:100D2800B2003E30B1007C30B000ED30AF00913001
:100D3800AE000A128A1139200A128A11831203138B
:100D48003108CF003008CE002F08CD002E08CC0087
:100D58004230CB007830CA000030C9000030C800EB
:100D68000A128A119A230A128A11831203134B0852
:100D7800DF004A08DE004908DD004808DC000A12E6
:100D88008A155E260A128A11831203135C089B00D7
:100D98006C08E700E801E901EA016A08A3006908AC
:100DA800A2006808A1006708A00001300A128A1191
:100DB80029270A128A11831203132308B50022086F
:100DC800B4002108B3002008B2004030B1007A30E6
:100DD800B000E130AF004830AE000A128A11392065
:100DE8000A128A11831203133108CF003008CE008B
:100DF8002F08CD002E08CC004730CB007830CA0031
:100E08003030C9000030C8000A128A119A230A1229
:100E18008A11831203134B08DF004A08DE004908D1
:100E2800DD004808DC000A128A155E260A128A11BB
:100E3800831203135D0883160313A300831203139D
:100E48005C0883160313A200080083120313A8008A
:100E580028080319302F312F452FA31F342F352F82
:100E6800452F2009AA002109AB002209AC0023095B
:100E7800AD00AA0A0319AB0A0319AC0A0319AD0A93
:100E88004D2F2308AD002208AC002108AB00200834
:100E9800AA002308220421042004031D542F552FDF
:100EA8005E2F0030A3000030A2000030A100003007
:100EB800A000E42F9630A4002408A900702F013068
:100EC800A4002408A90701300310AD0CAC0CAB0C2E
:100ED800AA0CFF3E031D682FFE302D05031D752F3C
:100EE800762F632F922F0130A4002408A907013020
:100EF800AA07003003180130AB070030031801308F
:100F0800AC07003003180130AD0701300310AD0CF9
:100F1800AC0CAB0CAA0CFF3E031D8A2FFF302D052D
:100F2800031D972F982F772FA42F0130A902013086
:100F3800A4000310AA0DAB0DAC0DAD0DA40B9D2F95
:100F4800AC1BA72FA82FAE2F023029020318AD2FF4
:100F5800AE2F992F2918B12FB22FBA2FFF30AA051B
:100F6800FF30AB057F30AC05FF30AD050310A90C91
:100F78002908A400A501A601A70118300310A40D93
:100F8800A50DA60DA70DFF3E031DC22F2408AA0418
:100F98002508AB042608AC042708AD042808031963
:100FA800D62FD72FDC2FA31FDA2FDB2FDC2FAD177F
:100FB8002D08A3002C08A2002B08A1002A08A000D5
:100FC800080083120313A1002108831203178D0060
:100FD800831603178C130C14831203170C0883123F
:100FE8000313A0002008A2002208080072347034FD
:1019920083120313A1002108831203178D008312FF
:1019A20003132008831203178C00831603178C136A
:1019B2000C158B1355308D00AA308D008C148312B8
:1019C20003130D1EE52CE62CE02C0D1283160317D3
:1019D2000C118B170C08080083120313A800A40132
:1019E200A5012008A200A3012208A6002308A7003F
:1019F200281CFC2CFD2C032D2608A4070318A50A7D
:101A02002708A50701300310A60DA70DFF3E031DF1
:101A1200042D0310A80C2808031D102D112DF92CDC
:101A22002508A1002408A00008000A128A157625BC
:101A32000A128A15831203139F140A128A15422569
:101A42000A128A150A128A1122260A128A1572307D
:101A52007306031D2D2D2E2D332D0A128A15DA261B
:101A62000A128A1570307306031D382D392D1E2D6A
:101A72000A128A1564270A128A151E2D0A128A1161
:101A82000E28831203139F18472D482D752D562DAE
:101A92001F08C33904389F006C2D1F08C33908384A
:101AA2009F006C2DC3309F056C2D1F0CA000200CD5
:101AB2000F39A100A2012208003A0319612D6C2DF1
:101AC2002108003A0319492D013A03194E2D033A10
:101AD2000319532D6C2D313083120313A000A00B78
:101AE200702D831203139F14080007308316031707
:101AF200880089010730831603138500860186302A
:101B02008700880189018330810006308312031324
:101B1200810090010C10FC308F0018308E002630AE
:101B22009200FA30831603139200831203131F08E4
:101B3200C33904389F00203083120313A000A00B86
:101B4200A02D0000831203131F141F083F394038D1
:101B52009F00831603139F131F129F120F088F39C2
:101B620060388F000F140C308312031397000C306F
:101B72009D00831603131812181518139816831252
:101B820003139817181318168316031787111930A1
:101B920083160313990001309A00E0308B00633002
:101BA2008C008D0183120313850186018701880150
:101BB20089018C018D018030831603138700013067
:101BC20083120313900008000B1DE82DE92DF52D5B
:101BD200063083120313810083160313A401A501A7
:101BE2000B11831203130C14831203130C1CFA2D12
:101BF200FB2D1D2E0C1083160313230883120313CF
:101C02008F00831603132208831203138E00013000
:101C120083160313A4070318A50A0030A50724039B
:101C22002504031D152E162E1A2E83120313871553
:101C32001D2E8312031387110C1F202E212E482ED6
:101C4200312E1E08F6007608EE00472E1E08F6001A
:101C52007608ED00472E1E08F6007608EC00472EA7
:101C62001F0CF600760C0F39F700F8017808003ADD
:101C720003193C2E472E7708003A0319222E013A07
:101C82000319272E033A03192C2E472E0C138C1CF2
:101C92004B2E4C2E4D2E8C108C1E502E512E552E0E
:101CA2001A08F6007608F3007B088A007A08840096
:101CB200790E8300FE0E7E0E0900031083120313B9
:101CC2005E0D5F0DE0006008E6006608031D6A2EE7
:101CD2006B2E742E0030DF000030DE000030DD009D
:101CE2000030DC00D92E5C08E0005D08E1005E08EF
:101CF200E2005F08E3001F300310E30CE20CE10C8A
:101D0200E00CFF3E031D7D2E6008E4006408E50040
:101D1200DE17FF30DC05FF30DD05FF30DE05003069
:101D2200DF059630E602E61F972E982EB22E660841
:101D3200803A973E03189E2E9F2EA02E6B2E0130C6
:101D42000310DF0CDE0CDD0CDC0CFF3E031DA12EAC
:101D52000130E0006008E607031DB02EB12EA02E70
:101D6200C92E20306602031CB72EB82EC42E6B2E4D
:101D72000130E0000310DC0DDD0DDE0DDF0DE00BA8
:101D8200BB2E0130E6026608031DC82EC92EB92EED
:101D920065080319CD2ECE2ED92EDC09DD09DE0908
:101DA200DF09DC0A0319DD0A0319DE0A0319DF0A57
:101DB2000800F3014E2F6E08A2002208A000003096
:101DC2000A128A15C9240A128A15831203136D088E
:101DD200A2002208A00001300A128A15C9240A12A0
:101DE2008A15831203136C08A2002208A000023095
:101DF2000A128A15C9240A128A15F201F20A632FFD
:101E02006E08A2002208A00003300A128A15C92413
:101E12000A128A15831203136D08A2002208A00079
:101E220004300A128A15C9240A128A15831203136E
:101E32006C08A2002208A00005300A128A15C924E3
:101E42000A128A15023083120313A2002208F2003A
:101E5200632F6E08A2002208A00006300A128A151B
:101E6200C9240A128A15831203136D08A2002208DC
:101E7200A00007300A128A15C9240A128A15831291
:101E820003136C08A2002208A00008300A128A1567
:101E9200C9240A128A15F201632F720883120313EE
:101EA200A200A3012308003A0319582F632F220826
:101EB200003A0319DC2E013A0319012F033A0319E0
:101EC2002A2F632F0800F301E72F1F1000300A1298
:101ED2008A11E5270A128A1583120313A300230825
:101EE200EE0001300A128A11E5270A128A158312BE
:101EF2000313A3002308ED0002300A128A11E5271A
:101F02000A128A1583120313A3002308EC00EB01C3
:101F1200EB0AFF2F03300A128A11E5270A128A15EB
:101F220083120313A3002308EE0004300A128A115D
:101F3200E5270A128A1583120313A3002308ED0072
:101F420005300A128A11E5270A128A158312031331
:101F5200A3002308EC000230A3002308EB00FF2FAC
:101F620006300A128A11E5270A128A158312031310
:101F7200A3002308EE0007300A128A11E5270A128D
:101F82008A1583120313A3002308ED0008300A12F6
:101F92008A11E5270A128A1583120313A300230864
:101FA200EC000330A3002308EB00FF2F1F08C33906
:101FB20004389F00203083120313A300A30BDF2FEA
:101FC2000000831203131F14EB01FF2F831203136C
:101FD2006B08A300A4012408003A0319F12FFF2F74
:101FE2002308003A0319662F013A03198B2F033A8B
:0E1FF2000319B12F013A0319D72FFF2F080052
:04400E00D420FF3F7C
:00000001FF
