:020000040000FA
:060000000A128A110E280D
:10000800FE00030EF9000408FA000A08FB000A12B1
:100018008A15D32C0A128A1111288317AC30FD00D7
:100028000A30FE00C030FF00903084000A128A15A2
:100038009C220A128A115D30FD000B30FE009F30B1
:10004800FF00103084000A128A159C220A128A11B5
:100058008313DA30FD000B30FE002930FF00A0309A
:1000680084000A128A159C220A128A118316031325
:10007800DA01DB01DC01DD01DE01DF01E001E10184
:10008800E20183120313ED01EE01EF01F001F1012A
:10009800F201F301F401F50183010A128A11A22F7A
:1000A8008312031331088039B6003608BB003108C3
:1000B800B6003607B7003708C100B01F64286528A6
:1000C80066284114410803196A286B287A28410ACE
:1000D800031D6F28702878280030B1000030B00068
:1000E8000030AF000030AE00B01782280030B100F9
:1000F8000030B0000030AF000030AE003508803965
:10010800B6003608BB063508B6003607B70037080C
:10011800BC00B41F9028912892283C143C0803196D
:1001280096289728A6283C0A031D9B289C28A428C3
:100138000030B5000030B4000030B3000030B20029
:10014800B417AE280030B5000030B4000030B3005A
:100158000030B2003C080319B228B328B828410877
:10016800031DB728B828C1280030B1000030B000FE
:100178000030AF000030AE00B42B2E08B6003608B1
:10018800A00034080A128A1500230A128A11831261
:1001980003132108C7002008C6004608B600B701A7
:1001A800B801B9013908C0003808BF003708BE00D7
:1001B8003608BD004708B600B701B801B9013908CB
:1001C800C5003808C4003708C3003608C2002F0825
:1001D800B6003608A00033080A128A1500230A124E
:1001E8008A11831203132108C7002008C600460895
:1001F800B600B701B801B9013608BD0737080311C1
:100208000318013E03190929BE073808031103180A
:10021800013E03191029BF07390803110318013ECD
:1002280003191729C0074708B600B701B801B90173
:100238003608C207370803110318013E0319252998
:10024800C307380803110318013E03192C29C407F2
:10025800390803110318013E03193329C50730086B
:10026800B6003608A00032080A128A1500230A12BE
:100278008A11831203132108C7002008C600460804
:10028800B600B701B801B9013608BD073708031130
:100298000318013E03195129BE0738080311031832
:1002A800013E03195829BF07390803110318013EF5
:1002B80003195F29C0074708B600B701B801B9019B
:1002C8003608C207370803110318013E03196D29C0
:1002D800C307380803110318013E03197429C4071A
:1002E800390803110318013E03197B29C507083093
:1002F800B6000310BD0DBE0DBF0DC00DB60B7D2998
:100308002F08B6003608A00032080A128A15002302
:100318000A128A11831203132108C7002008C60095
:100328004608B6004708B700B801B9013608BD0746
:10033800370803110318013E0319A329BE0738081B
:1003480003110318013E0319AA29BF07390803112D
:100358000318013E0319B129C0072E08B600360854
:10036800A00033080A128A1500230A128A11831280
:1003780003132108C7002008C6004608B60047082E
:10038800B700B801B9013608BD07370803110318CB
:10039800013E0319D029BE07380803110318013E8E
:1003A8000319D729BF07390803110318013E031998
:1003B800DE29C0070830B6000310BD0DBE0DBF0D05
:1003C800C00DB60BE0292E08B6003608A00032088A
:1003D8000A128A1500230A128A11831203132108AC
:1003E800C7002008C6004608B6004708B700B8018D
:1003F800B9013608BD07370803110318013E031970
:10040800062ABE07380803110318013E03190D2AEE
:10041800BF07390803110318013E0319142AC0073E
:100428002F08B6003608A00034080A128A150023DF
:100438000A128A11831203132108C7002008C60074
:100448004608B6004708B700B801B9013608C20720
:10045800370803110318013E0319332AC307380864
:1004680003110318013E03193A2AC4073908031176
:100478000318013E0319412AC5073008B60036089B
:10048800A00033080A128A1500230A128A1183125F
:1004980003132108C7002008C6004608B60047080D
:1004A800B700B801B9013608C207370803110318A5
:1004B800013E0319602AC307380803110318013ED7
:1004C8000319672AC407390803110318013E0319E1
:1004D8006E2AC5073008B6003608A00034080A128C
:1004E8008A1500230A128A11831203132108C700F0
:1004F8002008C6004608B6004708B700B801B90189
:1005080008300310B60DB70DB80DB90DFF3E031D29
:10051800852A3608C207370803110318013E031954
:10052800962AC307380803110318013E03199D2AA8
:10053800C407390803110318013E0319A42AC50783
:100548003D08B6003E08B7003F08B8004008B900AB
:1005580018300310B90CB80CB70CB60CFF3E031DCD
:10056800AD2A3608C207370803110318013E0319DC
:10057800BE2AC307380803110318013E0319C52A08
:10058800C407390803110318013E0319CC2AC5070B
:100598000830B6000310BD0DBE0DBF0DC00DB60B63
:1005A800CE2A41083C07B600B701B70D3608823E8F
:1005B800C60037080318013EFF3EC700002B013074
:1005C800B6000310C20DC30DC40DC50DB60BE52A48
:1005D800C01FEF2AF02AF12A42140130B600031096
:1005E800BD0DBE0DBF0DC00DB60BF32AFF30C607FB
:1005F8000318C70AFF30C707C41F032B042BE32ABD
:10060800BC01C01F082B092B252BFF303D05B60068
:10061800FF303E05B700FF303F05B8007F3040058A
:10062800B900390838043704360403191C2B1D2B6C
:10063800202BBC01BC0A252B421C232B242B252B49
:100648001D2B3C080319292B2A2B5B2B0130C207D1
:10065800003003180130C307003003180130C40705
:10066800003003180130C507451C3B2B3C2B5B2B86
:100678004208B6004308B7004408B8004508B90066
:100688000130BA00390DB90CB80CB70CB60CBA0B5E
:10069800462B3908C5003808C4003708C300360897
:1006A800C2000130C6070318C70A0030C707470849
:1006B800803AFF0080307F02031D642BFF30460222
:1006C800031C672B682B732B7F3083120313C50021
:1006D8008030C4000030C3000030C200A82B831251
:1006E80003134708803AFF0080307F02031D7E2BEA
:1006F800013046020318812B822B8E2B0030831287
:100708000313C5000030C4000030C3000030C2002D
:10071800BB01A82B831203134608B6003608C10094
:10072800FF30C205FF30C3057F30C4050030C50562
:10073800411C9F2BA02BA12BC4174108B600031006
:10074800360CB7003708C5003B08B6003608C504A4
:100758004508B1004408B0004308AF004208AE00A5
:100768000800831203134B088039D0005008D800C2
:100778004B08D0005007D1005108DA00CA1FC52B1A
:10078800C62BC72B5A145A080319CB2BCC2BDC2B9E
:100798005A0A031DD02BD12BD92B0030CB000030A7
:1007A800CA000030C9000030C800CA17CB01E42BCA
:1007B8000030CB000030CA000030C9000030C8004B
:1007C8004F088039D0005008D90059085806031935
:1007D800EE2BEF2BF02B58174F08D0005007D10005
:1007E8005108D900CE1FF92BFA2BFB2B59145908A5
:1007F8000319FF2B002C102C590A031D042C052C5F
:100808000D2C0030CF000030CE000030CD0000307D
:10081800CC00CE17CF01182C0030CF000030CE000E
:100828000030CD000030CC005A08590203181D2CA6
:100838001E2C622C581F212C222C262C8030D000F4
:100848005008D8065A08D0005008DB005908D000D4
:100858005008DA005B08D0005008D9004808D000DA
:100868005008DB004C08D0005008C8005B08D000D6
:100878005008CC004908D0005008DB004D08D000D3
:100888005008C9005B08D0005008CD004A08D000C5
:100898005008DB004E08D0005008CA005B08D000A2
:1008A8005008CE004B08D0005008DB004F08D0009D
:1008B8005008CB005B08D0005008CF00DB01590876
:1008C800D000D1015108D3005A085002D200031CAD
:1008D800D3035308803AFF0080307F02031D762C33
:1008E8001A305202031C792C7A2CB72C831203136A
:1008F8004B084A0449044804031D832C852C013005
:10090800862C0030D0005008DB000030CB000030CF
:10091800CA000030C9000030C8005908D00050088B
:10092800DA00BF2C5B1C992C9A2CA32C5B08D000F6
:100938000310500C0138D1005108DB00A52C03101E
:10094800DB0C481CA82CA92CAA2CDB170130D000E2
:100958004B0DCB0CCA0CC90CC80CD00BAC2C0130FD
:10096800D0005008DA078312031359085A02031CEF
:10097800BE2CBF2C962C581BC22CC32C0E2D5A08EB
:10098800031DC72CC82CD12C0030CB000030CA0066
:100998000030C9000030C8003C2E4C08C8074D087C
:1009A80003110318013E0319DA2CC9074E08031175
:1009B8000318013E0319E12CCA074F080311031855
:1009C800013E0319E82CCB074B1CEB2CEC2CC22D59
:1009D8005B1CEF2CF02CF92C5B08D0000310500C9A
:1009E8000138D1005108DB00FB2C0310DB0C481C3C
:1009F800FE2CFF2C002DDB170130D0004B0DCB0C4B
:100A0800CA0CC90CC80CD00B022D0130D0005008FC
:100A1800DA07C22D4B08803AFF004F08803A7F0260
:100A2800031D202D4E084A02031D202D4D084902A2
:100A3800031D202D4C0848020318232D242D7C2D3E
:100A4800FF30D000FF30D100FF30D200FF30D3009C
:100A58004C08D4004D08D5004E08D6004F08D700E2
:100A68004808D4024908031C490F3B2D3C2DD502E8
:100A78004A08031C4A0F412D422DD6024B08031C7D
:100A88004B0F472D482DD7025408D0075508031897
:100A9800550F4F2D502DD10756080318560F552DB9
:100AA800562DD20757080318570AD3075308CB0007
:100AB8005208CA005108C9005008C8008030D00048
:100AC8005008D806DB09DB0A5B08031D6C2D6D2D69
:100AD8008A2D0130C807003003180130C9070030DB
:100AE80003180130CA07003003180130CB078A2DDC
:100AF8004C08C8024D08031C4D0FC9024E08031CC0
:100B08004E0FCA024F08031C4F0FCB024B084A0472
:100B180049044804031D912D922DBE2D5B08031D29
:100B2800962D972DBE2D0030CB000030CA00003026
:100B3800C9000030C8003C2E0130D0000310C80D99
:100B4800C90DCA0DCB0DD00BA22DDB1FAC2DAD2DC1
:100B5800AE2D48145B1CB12DB22DB52D0314DB0D41
:100B6800B72D0310DB0D5A080319BB2DBC2DBE2D64
:100B78000130DA02CA1FC12DC22DA02DD901DB1FF9
:100B8800C62DC72DD52D5B087F390319CC2DCD2D4A
:100B9800D02DD901D90AD52D481CD32DD42DD52D2A
:100BA800CD2D59080319D92DDA2D0E2E0130C8077D
:100BB800003003180130C907003003180130CA0794
:100BC800003003180130CB074B1CEB2DEC2D0E2EFB
:100BD8004808D0004908D1004A08D2004B08D30081
:100BE8000130D400530DD30CD20CD10CD00CD40B43
:100BF800F62D5308CB005208CA005108C900500806
:100C0800C8005A0A0319092E0A2E0E2E0130D000E8
:100C18005008DA075A0A0319122E132E182E5A08EA
:100C2800031D172E182E262E0030CB000030CA00C8
:100C38000030C9000030C8005A08031D242E252E94
:100C4800262ED8015A1C292E2A2E2C2ECA17302EB1
:100C58007F30D0005008CA055A08D0000310500C45
:100C6800D1005108CB00D81F3A2E3B2E3C2ECB1773
:100C78000800831203136E08E700E801E901EA019E
:100C88006A08A3006908A2006808A1006708A00014
:100C980001300A128A1560250A128A118312031379
:100CA8002308B5002208B4002108B3002008B200C8
:100CB8003E30B1007C30B000ED30AF009130AE0076
:100CC8000A128A1154200A128A1183120313310856
:100CD800CF003008CE002F08CD002E08CC004230BF
:100CE800CB007830CA000030C9000030C8000A12B2
:100CF8008A11B5230A128A11831203134B08DF00E5
:100D08004A08DE004908DD004808DC000A128A1596
:100D180057240A128A11831203135C0895006F087E
:100D2800E700E801E901EA016A08A3006908A200EE
:100D38006808A1006708A00001300A128A1560251A
:100D48000A128A11831203132308B5002208B4007B
:100D58002108B3002008B2003E30B1007C30B0005A
:100D6800ED30AF009130AE000A128A1154200A12F9
:100D78008A11831203133108CF003008CE002F08E0
:100D8800CD002E08CC004230CB007830CA000030AD
:100D9800C9000030C8000A128A11B5230A128A1144
:100DA800831203134B08DF004A08DE004908DD0000
:100DB8004808DC000A128A1557240A128A1183127D
:100DC80003135C089B007508E700E801E901EA01E4
:100DD8006A08A3006908A2006808A1006708A000C3
:100DE80001300A128A1560250A128A118312031328
:100DF8002308B5002208B4002108B3002008B20077
:100E08003D30B1004830B000B430AF003930AE00EA
:100E18000A128A1154200A128A1183120313310804
:100E2800CF003008CE002F08CD002E08CC0040306F
:100E3800CB00E030CA000030C9000030C8000A12F8
:100E48008A11B5230A128A11831203134B08DF0093
:100E58004A08DE004908DD004808DC000A128A1545
:100E680057240A128A11831203135D088316031389
:100E7800DD00831203135C0883160313DC00740877
:100E880083120313E700E801E901EA016A08A300F5
:100E98006908A2006808A1006708A00001300A12CA
:100EA8008A1560250A128A11831203132308B500D4
:100EB8002208B4002108B3002008B2003D30B10078
:100EC8004830B000B430AF003930AE000A128A1191
:100ED80054200A128A11831203133108CF003008F4
:100EE800CE002F08CD002E08CC004030CB00E030DB
:100EF800CA000030C9000030C8000A128A11B523A0
:100F08000A128A11831203134B08DF004A08DE0015
:100F18004908DD004808DC000A128A1557240A121D
:100F28008A11831203135D0883160313DB008312EF
:100F380003135C0883160313DA0008000A128A15E3
:100F4800EC230A128A11831203139F14F0010A1268
:100F58008A1563230A128A110A128A113D260A1277
:100F68008A117308031DB92FBA2FDB2FD52F013033
:100F780083120313EB006B08F0070C1EC42FC52F58
:100F8800CB2F7008103E8400831700089900143096
:100F980083120313EC007930EB00EB0BD12FEC0B31
:100FA800D12F4C307002031CDA2FDB2FBB2F72308D
:100FB8007306031DE02FE12FE62F0A128A151C265F
:100FC8000A128A1170307306031DEB2FEC2FAB2F1A
:100FD8000A128A15DC260A128A11AB2F0A128A1104
:020FE8000E28D1
:101530007E088A007F0882000A128A1598220A1201
:101540008A158000840A04087D0603190034FF0A06
:101550000319FE0A9C2A83120313A1002108831297
:1015600003178D00831603178C130C1483120317B3
:101570000C0883120313A0002008A2002208080010
:1015800020340A3453346534203465346E34633483
:10159000753465346E347434723461342034653497
:1015A0006E34203470346F34733469346334693486
:1015B0006F346E342034333483120313A1002108B6
:1015C000831203178D00831203132008831203175D
:1015D0008C00831603178C130C158B1355308D005C
:1015E000AA308D008C14831203130D1EF82AF92AD9
:1015F000F32A0D12831603170C118B170C08080021
:1016000083120313A800A401A5012008A200A301CE
:101610002208A6002308A700281C0F2B102B162B2E
:101620002608A4070318A50A2708A50701300310F8
:10163000A60DA70DFF3E031D172B0310A80C2808AD
:10164000031D232B242B0C2B2508A1002408A0000C
:10165000080020340A3453346534203465346E3441
:101660006334753465346E347434723461342034C8
:1016700065346E34203470346F34733469346334B9
:1016800069346F346E342034323420340A345334A5
:101690006534203465346E346334753465346E34A7
:1016A000743472346134203465346E3420347034D0
:1016B0006F3473346934633469346F346E34203476
:1016C000313470347234831203139F18682B692BE2
:1016D0009E2B7C2B1F08C33904389F00952B1F08B5
:1016E000C33908389F00952B1F08C3390C389F0059
:1016F000952BC3309F05952B1F0CA000200C0F3994
:10170000A100A2012208003A0319872B952B21087A
:10171000003A03196A2B013A03196F2B033A031994
:10172000742B013A0319792B952B31308312031353
:10173000A000A00B992B831203139F1408002034E0
:101740000A3451347534653420346134633463347D
:1017500069346F346E3420346434653473346534E2
:101760006134203465346A346534633475347434D8
:10177000613472343F340A342834723429344734A3
:1017800075346134723464346134723420347034AA
:101790006F3473346934633469346F346E340A34AB
:1017A00028347034293452346534703472346F34D0
:1017B00064347534633469347234203470346F3473
:1017C00073346934633469346F346E34653473341C
:1017D00020340A34003400340F3083160317880095
:1017E00089010F3083160313850086018630870038
:1017F0008801890188308100B03083120313810091
:1018000026309200FA3083160313920083120313DA
:101810008C101F08C33904389F0020308312031333
:10182000A000A00B112C0000831203131F141F082B
:101830003F3940389F00831603139F131F129F12D6
:10184000831203130C13831603130F088F396038A8
:101850008F000F140C308312031397000F309D007C
:1018600083160313181218151813981683120313EE
:101870009817181318168316031787111930831633
:101880000313990001309A00E0308B0062308C0025
:101890008D01831203138501860187018801890167
:1018A0008C018D018030831603138700080003101C
:1018B000831203135E0D5F0DE0006008E60066080A
:1018C000031D632C642C6D2C0030DF000030DE0023
:1018D0000030DD000030DC00D22C5C08E0005D0848
:1018E000E1005E08E2005F08E3001F300310E30C34
:1018F000E20CE10CE00CFF3E031D762C6008E400D6
:101900006408E500DE17FF30DC05FF30DD05FF3041
:10191000DE050030DF059630E602E61F902C912CA4
:10192000AB2C6608803A973E0318972C982C992C7C
:10193000642C01300310DF0CDE0CDD0CDC0CFF3EF0
:10194000031D9A2C0130E0006008E607031DA92C56
:10195000AA2C992CC22C20306602031CB02CB12C6E
:10196000BD2C642C0130E0000310DC0DDD0DDE0D1C
:10197000DF0DE00BB42C0130E6026608031DC12C1C
:10198000C22CB22C65080319C62CC72CD22CDC093A
:10199000DD09DE09DF09DC0A0319DD0A0319DE0AA5
:1019A0000319DF0A08000B1DD62CD72C152D01308A
:1019B00083160313DE070318DF0A0030DF075F0812
:1019C0005D02031DE52C5E085C02031CE82CE92C7B
:1019D000ED2C831203138715F02C83120313871148
:1019E000831603135F085B02031DF82C5E085A027E
:1019F000031CFB2CFC2C002D831203130716032D54
:101A00008312031307120030831603135F02FA30A8
:101A100003195E02031C0D2D0E2D102DDE01DF01BA
:101A2000B0308312031381000B11831203130C1FB8
:101A30001A2D1B2D4A2D302D1E08F6007608EF00BA
:101A4000492D1E08F6007608EE00492D1E08F60006
:101A50007608F500492D1E08F6007608F400492D99
:101A60001F0CF600760C0F39F700F8017808003AE1
:101A700003193B2D492D7708003A03191C2D013A13
:101A80000319212D033A0319262D013A03192B2D91
:101A9000492D0C138C1C4D2D4E2D4F2D8C108C1E52
:101AA000522D532D572D1A08F6007608F3007B08A7
:101AB0008A007A088400790E8300FE0E7E0E0900EB
:101AC00083120313A80028080319672D682D7C2DA5
:101AD000A31F6B2D6C2D7C2D2009AA002109AB00C2
:101AE0002209AC002309AD00AA0A0319AB0A0319A5
:101AF000AC0A0319AD0A842D2308AD002208AC00FE
:101B00002108AB002008AA00230822042104200495
:101B1000031D8B2D8C2D952D0030A3000030A200CD
:101B20000030A1000030A0001B2E9630A400240835
:101B3000A900A72D0130A4002408A9070130031033
:101B4000AD0CAC0CAB0CAA0CFF3E031D9F2DFE3060
:101B50002D05031DAC2DAD2D9A2DC92D0130A400EE
:101B60002408A9070130AA07003003180130AB0789
:101B7000003003180130AC07003003180130AD0706
:101B800001300310AD0CAC0CAB0CAA0CFF3E031DD6
:101B9000C12DFF302D05031DCE2DCF2DAE2DDB2DFC
:101BA0000130A9020130A4000310AA0DAB0DAC0D49
:101BB000AD0DA40BD42DAC1BDE2DDF2DE52D023099
:101BC00029020318E42DE52DD02D2918E82DE92D43
:101BD000F12DFF30AA05FF30AB057F30AC05FF309B
:101BE000AD050310A90C2908A400A501A601A701B1
:101BF00018300310A40DA50DA60DA70DFF3E031D63
:101C0000F92D2408AA042508AB042608AC042708EB
:101C1000AD04280803190D2E0E2E132EA31F112E0E
:101C2000122E132EAD172D08A3002C08A2002B088E
:101C3000A1002A08A0000800F301C32E6F08A2002B
:101C40002208A00000300A128A15DC220A128A1526
:101C5000831203136E08A2002208A00001300A12AA
:101C60008A15DC220A128A15750883120313A20052
:101C70002208A00002300A128A15DC220A128A15F4
:101C8000740883120313A2002208A00003300A1272
:101C90008A15DC220A128A15F201F20A8312031352
:101CA0000814DB2E6F08A2002208A00004300A12DC
:101CB0008A15DC220A128A15831203136E08A20009
:101CC0002208A00005300A128A15DC220A128A15A1
:101CD000750883120313A2002208A00006300A121E
:101CE0008A15DC220A128A15740883120313A200D3
:101CF0002208A00007300A128A15DC220A128A156F
:101D0000023083120313A2002208F2008814DB2E93
:101D10006F08A2002208A00008300A128A15DC22EF
:101D20000A128A15831203136E08A2002208A0006B
:101D300009300A128A15DC220A128A1575088312E4
:101D40000313A2002208A0000A300A128A15DC221E
:101D50000A128A15740883120313A2002208A00035
:101D60000B300A128A15DC220A128A1503308312FC
:101D70000313A2002208F2000815DB2EF20108105E
:101D800088100811DB2E720883120313A200A3012E
:101D90002308003A0319CD2EDB2E2208003A03193E
:101DA0001E2E013A0319522E033A0319882E013AC6
:101DB0000319BE2EDB2E0800F301E72FED011F10E3
:101DC00000300A128A15AB220A128A1583120313F5
:101DD000A3002308EF0001300A128A15AB220A1271
:101DE0008A1583120313A3002308EE0002300A129F
:101DF0008A15AB220A128A1583120313A300230843
:101E0000F50003300A128A15AB220A128A158312D2
:101E10000313A3002308F400F101F10A272F013076
:101E2000A3002308ED070C1E162F172F1D2F6D087A
:101E3000BC3E8400831300089900143083120313FE
:101E4000A4007930A300A30B232FA40B232F1B3056
:101E5000831203136D02031C2E2F2F2F0F2FFF2F22
:101E6000ED0104300A128A15AB220A128A15831278
:101E70000313A3002308EF0005300A128A15AB22D2
:101E80000A128A1583120313A3002308EE000630FA
:101E90000A128A15AB220A128A1583120313A300B1
:101EA0002308F50007300A128A15AB220A128A1598
:101EB00083120313A3002308F4000230A3002308B5
:101EC000F1007A2F0130A3002308ED070C1E692FC3
:101ED0006A2F702F6D08A03E8400831300089900BC
:101EE000143083120313A4007930A300A30B762FC0
:101EF000A40B762F1C30831203136D02031C812F59
:101F0000822F622FFF2FED0108300A128A15AB22B3
:101F10000A128A1583120313A3002308EF00093065
:101F20000A128A15AB220A128A1583120313A30020
:101F30002308EE000A300A128A15AB220A128A150B
:101F400083120313A3002308F5000B300A128A152D
:101F5000AB220A128A1583120313A3002308F4008C
:101F60000330A3002308F100CD2F0130A300230884
:101F7000ED070C1EBC2FBD2FC32F6D08903E8400B3
:101F8000831700089900143083120313A4007930DA
:101F9000A300A30BC92FA40BC92F1B30831203135B
:101FA0006D02031CD42FD52FB52FFF2F1F08C33967
:101FB00004389F00413083120313A300A30BDE2FCC
:101FC000E12F831203131F14F101F001FF2F710899
:101FD00083120313A300A4012408003A0319F12F6C
:101FE000FF2F2308003A0319DE2E013A0319302F80
:101FF000033A0319832F013A0319D62FFF2F080044
:04400E00D420FF3F7C
:00000001FF
