:020000040000FA
:060000000A128A110C280F
:10000800FE00030EF0000A08F1000A128A116528A2
:100018000A128A110F2883010A128A1147288316A7
:10002800031788018901831603138501860180302F
:10003800870088018901C43081000F088F39603832
:100048008F000F141812181518139816831203131B
:100058009817181318168316031787111930831663
:100068000313990001309A00C0308B0020308C00B7
:100078008D01831203138501860187018801890197
:100088008C018D0108000A128A1113200A128A11A4
:10009800831203130C1E51285228542861309900EA
:1000A8000330F4008A30F3005530F200F20B5A287E
:1000B800F30B5A28F40B5A2861284C280A128A1183
:1000C8000C28831203138C1E6A286B286D281A08C3
:1000D800860071088A00700E8300FE0E7E0E0900ED
:04400E00D420FF3F7C
:00000001FF
