:020000040000FA
:060000000A128A110E280D
:10000800FE00030EF9000408FA000A08FB000A12B1
:100018008A153E2D0A128A111128831603130A1213
:100028008A15FE230A128A11A5000A128A15FF23CF
:100038000A128A11A600A001A101A201A301A4012C
:1000480083120313EB01EC01ED01EE01EF01F00166
:10005800F101F201F301F401F50183010A128A1595
:10006800622C8312031331088039B6003608BB00AE
:100078003108B6003607B7003708C100B01F452859
:10008800462847284114410803194B284C285B2867
:10009800410A031D5028512859280030B10000306A
:1000A800B0000030AF000030AE00B0176328003059
:1000B800B1000030B0000030AF000030AE003508AD
:1000C8008039B6003608BB063508B6003607B700D3
:1000D8003708BC00B41F7128722873283C143C08E8
:1000E80003197728782887283C0A031D7C287D284F
:1000F80085280030B5000030B4000030B30000306F
:10010800B200B4178F280030B5000030B4000030BA
:10011800B3000030B2003C080319932894289928AA
:100128004108031D98289928A2280030B100003002
:10013800B0000030AF000030AE00952B2E08B6009E
:100148003608A00034080A128A1539240A128A11BE
:10015800831203132108C7002008C6004608B6000A
:10016800B701B801B9013908C0003808BF0037081D
:10017800BE003608BD004708B600B701B801B9018E
:100188003908C5003808C4003708C3003608C2005B
:100198002F08B6003608A00033080A128A15392439
:1001A8000A128A11831203132108C7002008C60007
:1001B8004608B600B701B801B9013608BD073708C7
:1001C80003110318013E0319EA28BE073808031172
:1001D8000318013E0319F128BF0739080311031852
:1001E800013E0319F828C0074708B600B701B8014F
:1001F800B9013608C207370803110318013E03196D
:100208000629C307380803110318013E03190D29ED
:10021800C407390803110318013E03191429C50737
:100228003008B6003608A00032080A128A153924A8
:100238000A128A11831203132108C7002008C60076
:100248004608B600B701B801B9013608BD07370836
:1002580003110318013E03193229BE073808031198
:100268000318013E03193929BF0739080311031878
:10027800013E03194029C0074708B600B701B80175
:10028800B9013608C207370803110318013E0319DC
:100298004E29C307380803110318013E03195529CD
:1002A800C407390803110318013E03195C29C5075F
:1002B8000830B6000310BD0DBE0DBF0DC00DB60B46
:1002C8005E292F08B6003608A00032080A128A15DF
:1002D80039240A128A11831203132108C70020083F
:1002E800C6004608B6004708B700B801B901360885
:1002F800BD07370803110318013E03198429BE07F7
:10030800380803110318013E03198B29BF07390860
:1003180003110318013E03199229C0072E08B600DD
:100328003608A00033080A128A1539240A128A11DD
:10033800831203132108C7002008C6004608B60028
:100348004708B700B801B9013608BD0737080311D7
:100358000318013E0319B129BE0738080311031811
:10036800013E0319B829BF07390803110318013ED4
:100378000319BF29C0070830B6000310BD0DBE0D14
:10038800BF0DC00DB60BC1292E08B6003608A00057
:1003980032080A128A1539240A128A1183120313A1
:1003A8002108C7002008C6004608B6004708B7005D
:1003B800B801B9013608BD07370803110318013E13
:1003C8000319E729BE07380803110318013E03196A
:1003D800EE29BF07390803110318013E0319F5294F
:1003E800C0072F08B6003608A00034080A128A157C
:1003F80039240A128A11831203132108C70020081E
:10040800C6004608B6004708B700B801B901360863
:10041800C207370803110318013E0319142AC3073A
:10042800380803110318013E03191B2AC4073908A9
:1004380003110318013E0319222AC5073008B60024
:100448003608A00033080A128A1539240A128A11BC
:10045800831203132108C7002008C6004608B60007
:100468004708B700B801B9013608C20737080311B1
:100478000318013E0319412AC3073808031103185A
:10048800013E0319482AC407390803110318013E1D
:1004980003194F2AC5073008B6003608A0003408EB
:1004A8000A128A1539240A128A11831203132108A1
:1004B800C7002008C6004608B6004708B700B801BC
:1004C800B90108300310B60DB70DB80DB90DFF3ED0
:1004D800031D662A3608C207370803110318013EB0
:1004E8000319772AC307380803110318013E0319B3
:1004F8007E2AC407390803110318013E0319852A07
:10050800C5073D08B6003E08B7003F08B8004008D8
:10051800B90018300310B90CB80CB70CB60CFF3E74
:10052800031D8E2A3608C207370803110318013E37
:1005380003199F2AC307380803110318013E03193A
:10054800A62AC407390803110318013E0319AD2A66
:10055800C5070830B6000310BD0DBE0DBF0DC00D98
:10056800B60BAF2A41083C07B600B701B70D3608ED
:10057800823EC60037080318013EFF3EC700E12A45
:100588000130B6000310C20DC30DC40DC50DB60B66
:10059800C62AC01FD02AD12AD22A42140130B60056
:1005A8000310BD0DBE0DBF0DC00DB60BD42AFF3014
:1005B800C6070318C70AFF30C707C41FE42AE52A7D
:1005C800C42ABC01C01FE92AEA2A062BFF303D05D0
:1005D800B600FF303E05B700FF303F05B8007F305A
:1005E8004005B90039083804370436040319FD2AD0
:1005F800FE2A012BBC01BC0A062B421C042B052B2E
:10060800062BFE2A3C0803190A2B0B2B3C2B013026
:10061800C207003003180130C30700300318013047
:10062800C407003003180130C507451C1C2B1D2BBF
:100638003C2B4208B6004308B7004408B8004508F8
:10064800B9000130BA00390DB90CB80CB70CB60CAA
:10065800BA0B272B3908C5003808C4003708C3006F
:100668003608C2000130C6070318C70A0030C7079A
:100678004708803AFF0080307F02031D452BFF307A
:100688004602031C482B492B542B7F30831203133B
:10069800C5008030C4000030C3000030C200892B80
:1006A800831203134708803AFF0080307F02031D3E
:1006B8005F2B013046020318622B632B6F2B00302F
:1006C80083120313C5000030C4000030C30000309B
:1006D800C200BB01892B831203134608B6003608F3
:1006E800C100FF30C205FF30C3057F30C4050030AC
:1006F800C505411C802B812B822BC4174108B600ED
:100708000310360CB7003708C5003B08B60036089A
:10071800C5044508B1004408B0004308AF004208CA
:10072800AE000800831203134B088039D00050082C
:10073800D8004B08D0005007D1005108DA00CA1F72
:10074800A62BA72BA82B5A145A080319AC2BAD2B90
:10075800BD2B5A0A031DB12BB22BBA2B0030CB008C
:100768000030CA000030C9000030C800CA17CB01E9
:10077800C52B0030CB000030CA000030C900003063
:10078800C8004F088039D0005008D90059085806C9
:100798000319CF2BD02BD12B58174F08D000500757
:1007A800D1005108D900CE1FDA2BDB2BDC2B5914D2
:1007B80059080319E02BE12BF12B590A031DE52BEE
:1007C800E62BEE2B0030CF000030CE000030CD00FD
:1007D8000030CC00CE17CF01F92B0030CF0000300D
:1007E800CE000030CD000030CC005A085902031862
:1007F800FE2BFF2B432C581F022C032C072C803078
:10080800D0005008D8065A08D0005008DB00590814
:10081800D0005008DA005B08D0005008D90048081A
:10082800D0005008DB004C08D0005008C8005B0816
:10083800D0005008CC004908D0005008DB004D0813
:10084800D0005008C9005B08D0005008CD004A0805
:10085800D0005008DB004E08D0005008CA005B08E2
:10086800D0005008CE004B08D0005008DB004F08DD
:10087800D0005008CB005B08D0005008CF00DB0147
:100888005908D000D1015108D3005A085002D200AB
:10089800031CD3035308803AFF0080307F02031DF6
:1008A800572C1A305202031C5A2C5B2C982C83129A
:1008B80003134B084A0449044804031D642C662C9E
:1008C8000130672C0030D0005008DB000030CB002E
:1008D8000030CA000030C9000030C8005908D000F4
:1008E8005008DA00A02C5B1C7A2C7B2C842C5B082B
:1008F800D0000310500C0138D1005108DB00862CC1
:100908000310DB0C481C892C8A2C8B2CDB1701303C
:10091800D0004B0DCB0CCA0CC90CC80CD00B8D2CBD
:100928000130D0005008DA078312031359085A021D
:10093800031C9F2CA02C772C581BA32CA42CEF2C29
:100948005A08031DA82CA92CB22C0030CB0000306B
:10095800CA000030C9000030C8001D2E4C08C80766
:100968004D0803110318013E0319BB2CC9074E0893
:1009780003110318013E0319C22CCA074F080311BB
:100988000318013E0319C92CCB074B1CCC2CCD2CCA
:10099800A32D5B1CD02CD12CDA2C5B08D0000310C3
:1009A800500C0138D1005108DB00DC2C0310DB0CA3
:1009B800481CDF2CE02CE12CDB170130D0004B0D5C
:1009C800CB0CCA0CC90CC80CD00BE32C0130D000DE
:1009D8005008DA07A32D4B08803AFF004F08803AE9
:1009E8007F02031D012D4E084A02031D012D4D08EB
:1009F8004902031D012D4C0848020318042D052D3A
:100A08005D2DFF30D000FF30D100FF30D200FF3025
:100A1800D3004C08D4004D08D5004E08D6004F0826
:100A2800D7004808D4024908031C490F1C2D1D2D66
:100A3800D5024A08031C4A0F222D232DD6024B0843
:100A4800031C4B0F282D292DD7025408D007550811
:100A58000318550F302D312DD10756080318560F9E
:100A6800362D372DD20757080318570AD3075308CE
:100A7800CB005208CA005108C9005008C80080308D
:100A8800D0005008D806DB09DB0A5B08031D4D2D92
:100A98004E2D6B2D0130C807003003180130C907EF
:100AA800003003180130CA07003003180130CB07A3
:100AB8006B2D4C08C8024D08031C4D0FC9024E0887
:100AC800031C4E0FCA024F08031C4F0FCB024B08E2
:100AD8004A0449044804031D722D732D9F2D5B0899
:100AE800031D772D782D9F2D0030CB000030CA00D4
:100AF8000030C9000030C8001D2E0130D00003109E
:100B0800C80DC90DCA0DCB0DD00B832DDB1F8D2D44
:100B18008E2D8F2D48145B1C922D932D962D03142A
:100B2800DB0D982D0310DB0D5A0803199C2D9D2D04
:100B38009F2D0130DA02CA1FA22DA32D812DD901C4
:100B4800DB1FA72DA82DB62D5B087F390319AD2D06
:100B5800AE2DB12DD901D90AB62D481CB42DB52D0D
:100B6800B62DAE2D59080319BA2DBB2DEF2D013026
:100B7800C807003003180130C907003003180130D6
:100B8800CA07003003180130CB074B1CCC2DCD2DE4
:100B9800EF2D4808D0004908D1004A08D2004B0878
:100BA800D3000130D400530DD30CD20CD10CD00C8F
:100BB800D40BD72D5308CB005208CA005108C900DE
:100BC8005008C8005A0A0319EA2DEB2DEF2D013001
:100BD800D0005008DA075A0A0319F32DF42DF92D1D
:100BE8005A08031DF82DF92D072E0030CB000030D0
:100BF800CA000030C9000030C8005A08031D052E7D
:100C0800062E072ED8015A1C0A2E0B2E0D2ECA1797
:100C1800112E7F30D0005008CA055A08D0000310A2
:100C2800500CD1005108CB00D81F1B2E1C2E1D2E96
:100C3800CB170800831203136E08E700E801E901E7
:100C4800EA016A08A3006908A2006808A100670809
:100C5800A00001300A128A15C7250A128A118312C8
:100C680003132308B5002208B4002108B3002008A4
:100C7800B2003E30B1007C30B000ED30AF009130B2
:100C8800AE000A128A1135200A128A118312031340
:100C98003108CF003008CE002F08CD002E08CC0038
:100CA8004230CB007830CA000030C9000030C8009C
:100CB8000A128A1196230A128A11831203134B0807
:100CC800DF004A08DE004908DD004808DC000A1297
:100CD8008A1183270A128A11831203135C0895006C
:100CE8006F08E700E801E901EA016A08A30069085A
:100CF800A2006808A1006708A00001300A128A153E
:100D0800C7250A128A11831203132308B500220883
:100D1800B4002108B3002008B2003E30B1007C3096
:100D2800B000ED30AF009130AE000A128A113520C4
:100D38000A128A11831203133108CF003008CE003B
:100D48002F08CD002E08CC004230CB007830CA00E6
:100D58000030C9000030C8000A128A1196230A120E
:100D68008A11831203134B08DF004A08DE00490882
:100D7800DD004808DC000A128A1183270A128A114A
:100D8800831203135C089B006D08E700E801E90182
:100D9800EA016A08A3006908A2006808A1006708B8
:100DA800A00001300A128A15C7250A128A11831277
:100DB80003132308B5002208B4002108B300200853
:100DC800B2003D30B1004830B000B430AF00393027
:100DD800AE000A128A1135200A128A1183120313EF
:100DE8003108CF003008CE002F08CD002E08CC00E7
:100DF8004030CB00E030CA000030C9000030C800E5
:100E08000A128A1196230A128A11831203134B08B5
:100E1800DF004A08DE004908DD004808DC000A1245
:100E28008A1183270A128A11831203135D08831615
:100E38000313A300831203135C0883160313A20091
:100E4800831203136C08E700E801E901EA016A0864
:100E5800A3006908A2006808A1006708A000013083
:100E68000A128A15C7250A128A1183120313230846
:100E7800B5002208B4002108B3002008B2003D30B4
:100E8800B1004830B000B430AF003930AE000A12BB
:100E98008A1135200A128A11831203133108CF00F0
:100EA8003008CE002F08CD002E08CC004030CB00F3
:100EB800E030CA000030C9000030C8000A128A11A8
:100EC80096230A128A11831203134B08DF004A087B
:100ED800DE004908DD004808DC000A128A11832771
:100EE8000A128A11831203135D0883160313A100E3
:100EF800831203135C0883160313A0000800031071
:100F0800831203135E0D5F0DE0006008E6006608BB
:100F1800031D8F2F902F992F0030DF000030DE0047
:100F28000030DD000030DC00FE2F5C08E0005D08CA
:100F3800E1005E08E2005F08E3001F300310E30CE5
:100F4800E20CE10CE00CFF3E031DA22F6008E40058
:100F58006408E500DE17FF30DC05FF30DD05FF30F3
:100F6800DE050030DF059630E602E61FBC2FBD2FF8
:100F7800D72F6608803A973E0318C32FC42FC52F72
:100F8800902F01300310DF0CDE0CDD0CDC0CFF3E73
:100F9800031DC62F0130E0006008E607031DD52FAA
:100FA800D62FC52FEE2F20306602031CDC2FDD2F35
:100FB800E92F902F0130E0000310DC0DDD0DDE0D70
:100FC800DF0DE00BE02F0130E6026608031DED2F70
:100FD800EE2FDE2F65080319F22FF32FFE2FDC0901
:100FE800DD09DE09DF09DC0A0319DD0A0319DE0A57
:060FF8000319DF0A0800E6
:1017FC007034723483120313A1002108831203176F
:10180C008D00831603178C130C14831203170C080A
:10181C0083120313A0002008A200220808008312E0
:10182C000313A1002108831203178D0083120313E5
:10183C002008831203178C00831603178C130C15C6
:10184C008B1355308D00AA308D008C14831203132A
:10185C000D1E312C322C2C2C0D12831603170C114F
:10186C008B170C08080083120313A800A401A50110
:10187C002008A200A3012208A6002308A700281C08
:10188C00482C492C4F2C2608A4070318A50A270816
:10189C00A50701300310A60DA70DFF3E031D502C0C
:1018AC000310A80C2808031D5C2C5D2C452C250866
:1018BC00A1002408A00008000A128A15D3240A12D9
:1018CC008A15831203139F140A128A1597240A127D
:1018DC008A150A128A111E260A128A15723073068C
:1018EC00031D792C7A2C7F2C0A128A1540270A1298
:1018FC008A1570307306031D842C852C8A2C0A12D1
:10190C008A1583260A128A1561307306031D8F2CE3
:10191C00902C6A2C8312031308146A2C0A128A1155
:10192C000E28831203139F189C2C9D2CD22CB02CA8
:10193C001F08C33904389F00C92C1F08C339083845
:10194C009F00C92C1F08C3390C389F00C92CC33009
:10195C009F05C92C1F0CA000200C0F39A100A2015F
:10196C002208003A0319BB2CC92C2108003A031990
:10197C009E2C013A0319A32C033A0319A82C013A03
:10198C000319AD2CC92C313083120313A000A00B0A
:10199C00CD2C831203139F1408000F3083160317EA
:1019AC00880089010F308316031385008601863069
:1019BC0087008801890188308100B03083120313BD
:1019CC00810026309200FA308316031392008312A2
:1019DC0003138C101F08C33904389F002030831266
:1019EC000313A000A00BF82C0000831203131F1488
:1019FC001F083F3940389F00831603139F131F1293
:101A0C009F12831203130C13831603130F088F39C1
:101A1C0060388F000F140C308312031397000F30B3
:101A2C009D00831603131812181518139816831299
:101A3C0003139817181318168316031787111930E8
:101A4C0083160313990001309A00E0308B0062304A
:101A5C008C008D0183120313850186018701880197
:101A6C0089018C018D0180308316031387000800D7
:101A7C000B1D412D422D7C2D0130F0070318F10A6E
:101A8C000030F1077108831603132302031D502D38
:101A9C0070082202031C532D542D582D831203134E
:101AAC0087155B2D8312031387117108831603139B
:101ABC002102031D632D70082002031C662D672D67
:101ACC006B2D8312031307166E2D8312031307124B
:101ADC0000307102FA3003197002031C762D772D39
:101AEC00792DF001F101B03081000B118312031339
:101AFC000C1F812D822DB12D972D1E08F600760816
:101B0C00EF00B02D1E08F6007608EE00B02D1E0872
:101B1C00F6007608ED00B02D1E08F6007608EC00F5
:101B2C00B02D1F0CF600760C0F39F700F801780871
:101B3C00003A0319A22DB02D7708003A0319832D12
:101B4C00013A0319882D033A03198D2D013A031913
:101B5C00922DB02D0C138C1CB42DB52DB62D8C10D4
:101B6C008C1EB92DBA2DBE2D1A08F6007608F3007E
:101B7C007B088A007A088400790E8300FE0E7E0EA4
:101B8C00090083120313A80028080319CE2DCF2DAA
:101B9C00E32DA31FD22DD32DE32D2009AA0021095B
:101BAC00AB002209AC002309AD00AA0A0319AB0A49
:101BBC000319AC0A0319AD0AEB2D2308AD0022085A
:101BCC00AC002108AB002008AA0023082204210441
:101BDC002004031DF22DF32DFC2D0030A30000304A
:101BEC00A2000030A1000030A000822E9630A4008C
:101BFC002408A9000E2E0130A4002408A9070130E6
:101C0C000310AD0CAC0CAB0CAA0CFF3E031D062E46
:101C1C00FE302D05031D132E142E012E302E0130F7
:101C2C00A4002408A9070130AA07003003180130CA
:101C3C00AB07003003180130AC070030031801303B
:101C4C00AD0701300310AD0CAC0CAB0CAA0CFF3E75
:101C5C00031D282EFF302D05031D352E362E152E77
:101C6C00422E0130A9020130A4000310AA0DAB0DC5
:101C7C00AC0DAD0DA40B3B2EAC1B452E462E4C2EA5
:101C8C000230290203184B2E4C2E372E29184F2EBA
:101C9C00502E582EFF30AA05FF30AB057F30AC0517
:101CAC00FF30AD050310A90C2908A400A501A6015D
:101CBC00A70118300310A40DA50DA60DA70DFF3E0E
:101CCC00031D602E2408AA042508AB042608AC04C6
:101CDC002708AD0428080319742E752E7A2EA31F1D
:101CEC00782E792E7A2EAD172D08A3002C08A20081
:101CFC002B08A1002A08A0000800F301272F1F10B1
:101D0C0000300A128A1500240A128A158312031352
:101D1C00A3002308EF0001300A128A1500240A12CE
:101D2C008A1583120313A3002308EE0002300A1253
:101D3C008A1500240A128A1583120313A3002308A0
:101D4C00ED0003300A128A1500240A128A15831238
:101D5C000313A3002308EC00EB01EB0A3F2F043024
:101D6C000A128A1500240A128A1583120313A3007F
:101D7C002308EF0005300A128A1500240A128A156E
:101D8C0083120313A3002308EE0006300A128A15EF
:101D9C0000240A128A1583120313A3002308ED00F2
:101DAC0007300A128A1500240A128A1583120313AB
:101DBC00A3002308EC000230A3002308EB003F2F04
:101DCC0008300A128A1500240A128A15831203138A
:101DDC00A3002308EF0009300A128A1500240A1206
:101DEC008A1583120313A3002308EE000A300A128B
:101DFC008A1500240A128A1583120313A3002308E0
:101E0C00ED000B300A128A1500240A128A1583126F
:101E1C000313A3002308EC000330A3002308EB00FA
:101E2C003F2F1F08C33904389F004130831203131E
:101E3C00A300A30B1F2F222F831203131F14EB01DC
:101E4C003F2F831203136B08A300A4012408003A4C
:101E5C000319312F3F2F2308003A0319852E013A1D
:101E6C000319B52E033A0319E62E013A0319172F5D
:101E7C003F2F0800F301E72F6F08A2002208A000F3
:101E8C0000300A128A1515240A128A1583120313BC
:101E9C006E08A2002208A00001300A128A1515242F
:101EAC000A128A15831203136D08A2002208A000DF
:101EBC0002300A128A1515240A128A15831203138A
:101ECC006C08A2002208A00003300A128A151524FF
:101EDC000A128A15F201F20A831203130814FF2F57
:101EEC006F08A2002208A00004300A128A151524DB
:101EFC000A128A15831203136E08A2002208A0008E
:101F0C0005300A128A1515240A128A158312031336
:101F1C006D08A2002208A00006300A128A151524AA
:101F2C000A128A15831203136C08A2002208A0005F
:101F3C0007300A128A1515240A128A1502308312E8
:101F4C000313A2002208F2008814FF2F6F08A200CE
:101F5C002208A00008300A128A1515240A128A15C4
:101F6C00831203136E08A2002208A00009300A1283
:101F7C008A1515240A128A15831203136D08A20000
:101F8C002208A0000A300A128A1515240A128A1592
:101F9C00831203136C08A2002208A0000B300A1253
:101FAC008A1515240A128A15033083120313A20012
:101FBC002208F2000815FF2FF201081088100811F2
:101FCC00FF2F720883120313A200A3012308003A07
:101FDC000319F12FFF2F2208003A0319422F013A5F
:101FEC000319762F033A0319AC2F013A0319E22F88
:041FFC00FF2F0800AB
:04400E00D420FF3F7C
:00000001FF
