:060000000A128A11132907
:100008008B13A200030EA3000B1811200B19172045
:10001800230E8300A20E220E0900061C2414861C3F
:0C002800A4140B10080024150B11080094
:100200008A010A1482073F3406345B344F34663463
:100210006D347D3407347F34673477347C3439343B
:100220005E3479347134031783168801890103130E
:100230008316F0308500FF308600870188018B1718
:100240008B168B15031383128501870186018801A4
:100250000313831664004430810003309500960038
:10026000031383160F14031383123F308800870093
:10027000A1017D30A000432124185821A418602139
:10028000241949213C2903138312063081000B11E4
:10029000080024114321A00B08004F210800A10AE7
:1002A0007D30A000211AA10121080021880008004A
:1002B000A401850A051A85010508002187000800A8
:1002C000A40185030F30851B8500050800218700E8
:0202D000080024
:04400E00C430FF3F7C
:00000001FF
